{
	"@uniswap/v4-core/src/types/Currency.sol": {
		"CurrencyLibrary": {
			"abi": [
				{
					"inputs": [],
					"name": "ERC20TransferFailed",
					"type": "error"
				},
				{
					"inputs": [],
					"name": "NativeTransferFailed",
					"type": "error"
				},
				{
					"inputs": [],
					"name": "ADDRESS_ZERO",
					"outputs": [
						{
							"internalType": "Currency",
							"name": "",
							"type": "address"
						}
					],
					"stateMutability": "view",
					"type": "function"
				}
			],
			"devdoc": {
				"details": "This library allows for transferring and holding native tokens and ERC20 tokens",
				"kind": "dev",
				"methods": {},
				"title": "CurrencyLibrary",
				"version": 1
			},
			"evm": {
				"assembly": "    /* \"@uniswap/v4-core/src/types/Currency.sol\":1059:5457  library CurrencyLibrary {... */\n  dataSize(sub_0)\n  dataOffset(sub_0)\n  0x0b\n  dup3\n  dup3\n  dup3\n  codecopy\n  dup1\n  mload\n  0x00\n  byte\n  0x73\n  eq\n  tag_1\n  jumpi\n  mstore(0x00, 0x4e487b7100000000000000000000000000000000000000000000000000000000)\n  mstore(0x04, 0x00)\n  revert(0x00, 0x24)\ntag_1:\n  mstore(0x00, address)\n  0x73\n  dup2\n  mstore8\n  dup3\n  dup2\n  return\nstop\n\nsub_0: assembly {\n        /* \"@uniswap/v4-core/src/types/Currency.sol\":1059:5457  library CurrencyLibrary {... */\n      eq(address, deployTimeAddress())\n      mstore(0x40, 0x80)\n      jumpi(tag_1, lt(calldatasize, 0x04))\n      shr(0xe0, calldataload(0x00))\n      dup1\n      0x66e79509\n      eq\n      tag_2\n      jumpi\n    tag_1:\n      0x00\n      dup1\n      revert\n        /* \"@uniswap/v4-core/src/types/Currency.sol\":1400:1465  Currency public constant ADDRESS_ZERO = Currency.wrap(address(0)) */\n    tag_2:\n      tag_3\n      tag_4\n      jump\t// in\n    tag_3:\n      mload(0x40)\n      tag_5\n      swap2\n      swap1\n      tag_6\n      jump\t// in\n    tag_5:\n      mload(0x40)\n      dup1\n      swap2\n      sub\n      swap1\n      return\n    tag_4:\n        /* \"@uniswap/v4-core/src/types/Currency.sol\":1462:1463  0 */\n      0x00\n        /* \"@uniswap/v4-core/src/types/Currency.sol\":1400:1465  Currency public constant ADDRESS_ZERO = Currency.wrap(address(0)) */\n      dup2\n      jump\t// out\n        /* \"#utility.yul\":7:133   */\n    tag_7:\n        /* \"#utility.yul\":44:51   */\n      0x00\n        /* \"#utility.yul\":84:126   */\n      0xffffffffffffffffffffffffffffffffffffffff\n        /* \"#utility.yul\":77:82   */\n      dup3\n        /* \"#utility.yul\":73:127   */\n      and\n        /* \"#utility.yul\":62:127   */\n      swap1\n      pop\n        /* \"#utility.yul\":7:133   */\n      swap2\n      swap1\n      pop\n      jump\t// out\n        /* \"#utility.yul\":139:199   */\n    tag_8:\n        /* \"#utility.yul\":167:170   */\n      0x00\n        /* \"#utility.yul\":188:193   */\n      dup2\n        /* \"#utility.yul\":181:193   */\n      swap1\n      pop\n        /* \"#utility.yul\":139:199   */\n      swap2\n      swap1\n      pop\n      jump\t// out\n        /* \"#utility.yul\":205:347   */\n    tag_9:\n        /* \"#utility.yul\":255:264   */\n      0x00\n        /* \"#utility.yul\":288:341   */\n      tag_17\n        /* \"#utility.yul\":306:340   */\n      tag_18\n        /* \"#utility.yul\":315:339   */\n      tag_19\n        /* \"#utility.yul\":333:338   */\n      dup5\n        /* \"#utility.yul\":315:339   */\n      tag_7\n      jump\t// in\n    tag_19:\n        /* \"#utility.yul\":306:340   */\n      tag_8\n      jump\t// in\n    tag_18:\n        /* \"#utility.yul\":288:341   */\n      tag_7\n      jump\t// in\n    tag_17:\n        /* \"#utility.yul\":275:341   */\n      swap1\n      pop\n        /* \"#utility.yul\":205:347   */\n      swap2\n      swap1\n      pop\n      jump\t// out\n        /* \"#utility.yul\":353:479   */\n    tag_10:\n        /* \"#utility.yul\":403:412   */\n      0x00\n        /* \"#utility.yul\":436:473   */\n      tag_21\n        /* \"#utility.yul\":467:472   */\n      dup3\n        /* \"#utility.yul\":436:473   */\n      tag_9\n      jump\t// in\n    tag_21:\n        /* \"#utility.yul\":423:473   */\n      swap1\n      pop\n        /* \"#utility.yul\":353:479   */\n      swap2\n      swap1\n      pop\n      jump\t// out\n        /* \"#utility.yul\":485:611   */\n    tag_11:\n        /* \"#utility.yul\":535:544   */\n      0x00\n        /* \"#utility.yul\":568:605   */\n      tag_23\n        /* \"#utility.yul\":599:604   */\n      dup3\n        /* \"#utility.yul\":568:605   */\n      tag_10\n      jump\t// in\n    tag_23:\n        /* \"#utility.yul\":555:605   */\n      swap1\n      pop\n        /* \"#utility.yul\":485:611   */\n      swap2\n      swap1\n      pop\n      jump\t// out\n        /* \"#utility.yul\":617:785   */\n    tag_12:\n        /* \"#utility.yul\":741:778   */\n      tag_25\n        /* \"#utility.yul\":772:777   */\n      dup2\n        /* \"#utility.yul\":741:778   */\n      tag_11\n      jump\t// in\n    tag_25:\n        /* \"#utility.yul\":736:739   */\n      dup3\n        /* \"#utility.yul\":729:779   */\n      mstore\n        /* \"#utility.yul\":617:785   */\n      pop\n      pop\n      jump\t// out\n        /* \"#utility.yul\":791:1087   */\n    tag_6:\n        /* \"#utility.yul\":921:925   */\n      0x00\n        /* \"#utility.yul\":959:961   */\n      0x20\n        /* \"#utility.yul\":948:957   */\n      dup3\n        /* \"#utility.yul\":944:962   */\n      add\n        /* \"#utility.yul\":936:962   */\n      swap1\n      pop\n        /* \"#utility.yul\":972:1080   */\n      tag_27\n        /* \"#utility.yul\":1077:1078   */\n      0x00\n        /* \"#utility.yul\":1066:1075   */\n      dup4\n        /* \"#utility.yul\":1062:1079   */\n      add\n        /* \"#utility.yul\":1053:1059   */\n      dup5\n        /* \"#utility.yul\":972:1080   */\n      tag_12\n      jump\t// in\n    tag_27:\n        /* \"#utility.yul\":791:1087   */\n      swap3\n      swap2\n      pop\n      pop\n      jump\t// out\n\n    auxdata: 0xa2646970667358221220c55422b827a83a898077c5fa575ee5e6217b530eb9dee8acc0a0dc003fa614f564736f6c634300081a0033\n}\n",
				"bytecode": {
					"linkReferences": {},
					"object": "61010f61004d600b8282823980515f1a6073146041577f4e487b71000000000000000000000000000000000000000000000000000000005f525f60045260245ffd5b305f52607381538281f3fe73000000000000000000000000000000000000000030146080604052600436106032575f3560e01c806366e79509146036575b5f80fd5b603c6050565b6040516047919060c2565b60405180910390f35b5f81565b5f73ffffffffffffffffffffffffffffffffffffffff82169050919050565b5f819050919050565b5f6090608c6088846054565b6073565b6054565b9050919050565b5f609f82607c565b9050919050565b5f60ae826097565b9050919050565b60bc8160a6565b82525050565b5f60208201905060d35f83018460b5565b9291505056fea2646970667358221220c55422b827a83a898077c5fa575ee5e6217b530eb9dee8acc0a0dc003fa614f564736f6c634300081a0033",
					"opcodes": "PUSH2 0x10F PUSH2 0x4D PUSH1 0xB DUP3 DUP3 DUP3 CODECOPY DUP1 MLOAD PUSH0 BYTE PUSH1 0x73 EQ PUSH1 0x41 JUMPI PUSH32 0x4E487B7100000000000000000000000000000000000000000000000000000000 PUSH0 MSTORE PUSH0 PUSH1 0x4 MSTORE PUSH1 0x24 PUSH0 REVERT JUMPDEST ADDRESS PUSH0 MSTORE PUSH1 0x73 DUP2 MSTORE8 DUP3 DUP2 RETURN INVALID PUSH20 0x0 ADDRESS EQ PUSH1 0x80 PUSH1 0x40 MSTORE PUSH1 0x4 CALLDATASIZE LT PUSH1 0x32 JUMPI PUSH0 CALLDATALOAD PUSH1 0xE0 SHR DUP1 PUSH4 0x66E79509 EQ PUSH1 0x36 JUMPI JUMPDEST PUSH0 DUP1 REVERT JUMPDEST PUSH1 0x3C PUSH1 0x50 JUMP JUMPDEST PUSH1 0x40 MLOAD PUSH1 0x47 SWAP2 SWAP1 PUSH1 0xC2 JUMP JUMPDEST PUSH1 0x40 MLOAD DUP1 SWAP2 SUB SWAP1 RETURN JUMPDEST PUSH0 DUP2 JUMP JUMPDEST PUSH0 PUSH20 0xFFFFFFFFFFFFFFFFFFFFFFFFFFFFFFFFFFFFFFFF DUP3 AND SWAP1 POP SWAP2 SWAP1 POP JUMP JUMPDEST PUSH0 DUP2 SWAP1 POP SWAP2 SWAP1 POP JUMP JUMPDEST PUSH0 PUSH1 0x90 PUSH1 0x8C PUSH1 0x88 DUP5 PUSH1 0x54 JUMP JUMPDEST PUSH1 0x73 JUMP JUMPDEST PUSH1 0x54 JUMP JUMPDEST SWAP1 POP SWAP2 SWAP1 POP JUMP JUMPDEST PUSH0 PUSH1 0x9F DUP3 PUSH1 0x7C JUMP JUMPDEST SWAP1 POP SWAP2 SWAP1 POP JUMP JUMPDEST PUSH0 PUSH1 0xAE DUP3 PUSH1 0x97 JUMP JUMPDEST SWAP1 POP SWAP2 SWAP1 POP JUMP JUMPDEST PUSH1 0xBC DUP2 PUSH1 0xA6 JUMP JUMPDEST DUP3 MSTORE POP POP JUMP JUMPDEST PUSH0 PUSH1 0x20 DUP3 ADD SWAP1 POP PUSH1 0xD3 PUSH0 DUP4 ADD DUP5 PUSH1 0xB5 JUMP JUMPDEST SWAP3 SWAP2 POP POP JUMP INVALID LOG2 PUSH5 0x6970667358 0x22 SLT KECCAK256 0xC5 SLOAD 0x22 0xB8 0x27 0xA8 GASPRICE DUP10 DUP1 PUSH24 0xC5FA575EE5E6217B530EB9DEE8ACC0A0DC003FA614F56473 PUSH16 0x6C634300081A00330000000000000000 "
				},
				"gasEstimates": {
					"creation": {
						"codeDepositCost": "54200",
						"executionCost": "128",
						"totalCost": "54328"
					},
					"external": {
						"ADDRESS_ZERO()": "infinite"
					},
					"internal": {
						"balanceOf(Currency,address)": "infinite",
						"balanceOfSelf(Currency)": "infinite",
						"fromId(uint256)": "infinite",
						"isAddressZero(Currency)": "infinite",
						"toId(Currency)": "infinite",
						"transfer(Currency,address,uint256)": "infinite"
					}
				},
				"methodIdentifiers": {
					"ADDRESS_ZERO()": "66e79509"
				}
			},
			"storageLayout": {
				"storage": [],
				"types": null
			},
			"userdoc": {
				"errors": {
					"ERC20TransferFailed()": [
						{
							"notice": "Additional context for ERC-7751 wrapped error when an ERC20 transfer fails"
						}
					],
					"NativeTransferFailed()": [
						{
							"notice": "Additional context for ERC-7751 wrapped error when a native transfer fails"
						}
					]
				},
				"kind": "user",
				"methods": {
					"ADDRESS_ZERO()": {
						"notice": "A constant to represent the native currency"
					}
				},
				"version": 1
			}
		}
	}
}