{
	"contracts/Transaction.sol": {
		"Transaction": {
			"abi": [
				{
					"inputs": [],
					"stateMutability": "nonpayable",
					"type": "constructor"
				},
				{
					"anonymous": false,
					"inputs": [
						{
							"indexed": false,
							"internalType": "address",
							"name": "owner",
							"type": "address"
						},
						{
							"indexed": false,
							"internalType": "address",
							"name": "USDC_ADDRESS",
							"type": "address"
						}
					],
					"name": "ContractDeployed",
					"type": "event"
				},
				{
					"anonymous": false,
					"inputs": [
						{
							"indexed": false,
							"internalType": "string",
							"name": "log",
							"type": "string"
						}
					],
					"name": "log",
					"type": "event"
				},
				{
					"inputs": [],
					"name": "UNISWAP_POOLMANAGER_SEPOLIA",
					"outputs": [
						{
							"internalType": "address",
							"name": "",
							"type": "address"
						}
					],
					"stateMutability": "view",
					"type": "function"
				},
				{
					"inputs": [],
					"name": "USDC_ADDRESS",
					"outputs": [
						{
							"internalType": "address",
							"name": "",
							"type": "address"
						}
					],
					"stateMutability": "view",
					"type": "function"
				},
				{
					"inputs": [],
					"name": "USDC_ADDRESS_SEPOLIA",
					"outputs": [
						{
							"internalType": "address",
							"name": "",
							"type": "address"
						}
					],
					"stateMutability": "view",
					"type": "function"
				},
				{
					"inputs": [
						{
							"internalType": "uint256",
							"name": "balanceOfETH",
							"type": "uint256"
						}
					],
					"name": "executeSwap",
					"outputs": [
						{
							"internalType": "uint256",
							"name": "userETH",
							"type": "uint256"
						},
						{
							"internalType": "uint256",
							"name": "gainOfUSDC",
							"type": "uint256"
						}
					],
					"stateMutability": "nonpayable",
					"type": "function"
				},
				{
					"inputs": [],
					"name": "getUserBalance",
					"outputs": [
						{
							"internalType": "uint256",
							"name": "",
							"type": "uint256"
						}
					],
					"stateMutability": "view",
					"type": "function"
				},
				{
					"inputs": [],
					"name": "owner",
					"outputs": [
						{
							"internalType": "address",
							"name": "",
							"type": "address"
						}
					],
					"stateMutability": "view",
					"type": "function"
				}
			],
			"devdoc": {
				"kind": "dev",
				"methods": {},
				"version": 1
			},
			"evm": {
				"assembly": "    /* \"contracts/Transaction.sol\":1192:2430  contract Transaction is ReentrancyGuard {... */\n  mstore(0x40, 0x80)\n    /* \"contracts/Transaction.sol\":1662:1817  constructor() {... */\n  callvalue\n  dup1\n  iszero\n  tag_1\n  jumpi\n  0x00\n  dup1\n  revert\ntag_1:\n  pop\n    /* \"@openzeppelin/contracts/security/ReentrancyGuard.sol\":1716:1717  1 */\n  0x01\n    /* \"@openzeppelin/contracts/security/ReentrancyGuard.sol\":1821:1828  _status */\n  0x00\n    /* \"@openzeppelin/contracts/security/ReentrancyGuard.sol\":1821:1843  _status = _NOT_ENTERED */\n  dup2\n  swap1\n  sstore\n  pop\n    /* \"contracts/Transaction.sol\":1694:1704  msg.sender */\n  caller\n    /* \"contracts/Transaction.sol\":1686:1691  owner */\n  0x02\n  0x00\n    /* \"contracts/Transaction.sol\":1686:1704  owner = msg.sender */\n  0x0100\n  exp\n  dup2\n  sload\n  dup2\n  0xffffffffffffffffffffffffffffffffffffffff\n  mul\n  not\n  and\n  swap1\n  dup4\n  0xffffffffffffffffffffffffffffffffffffffff\n  and\n  mul\n  or\n  swap1\n  sstore\n  pop\n    /* \"contracts/Transaction.sol\":1413:1455  0x1c7D4B196Cb0C7B01d743Fbc6116a902379C7238 */\n  0x1c7d4b196cb0c7b01d743fbc6116a902379c7238\n    /* \"contracts/Transaction.sol\":1714:1726  USDC_ADDRESS */\n  0x01\n  0x00\n    /* \"contracts/Transaction.sol\":1714:1749  USDC_ADDRESS = USDC_ADDRESS_SEPOLIA */\n  0x0100\n  exp\n  dup2\n  sload\n  dup2\n  0xffffffffffffffffffffffffffffffffffffffff\n  mul\n  not\n  and\n  swap1\n  dup4\n  0xffffffffffffffffffffffffffffffffffffffff\n  and\n  mul\n  or\n  swap1\n  sstore\n  pop\n    /* \"contracts/Transaction.sol\":1773:1810  ContractDeployed(owner, USDC_ADDRESS) */\n  0x33c981baba081f8fd2c52ac6ad1ea95b6814b4376640f55689051f6584729688\n    /* \"contracts/Transaction.sol\":1790:1795  owner */\n  0x02\n  0x00\n  swap1\n  sload\n  swap1\n  0x0100\n  exp\n  swap1\n  div\n  0xffffffffffffffffffffffffffffffffffffffff\n  and\n    /* \"contracts/Transaction.sol\":1797:1809  USDC_ADDRESS */\n  0x01\n  0x00\n  swap1\n  sload\n  swap1\n  0x0100\n  exp\n  swap1\n  div\n  0xffffffffffffffffffffffffffffffffffffffff\n  and\n    /* \"contracts/Transaction.sol\":1773:1810  ContractDeployed(owner, USDC_ADDRESS) */\n  mload(0x40)\n  tag_6\n  swap3\n  swap2\n  swap1\n  tag_7\n  jump\t// in\ntag_6:\n  mload(0x40)\n  dup1\n  swap2\n  sub\n  swap1\n  log1\n    /* \"contracts/Transaction.sol\":1192:2430  contract Transaction is ReentrancyGuard {... */\n  jump(tag_8)\n    /* \"#utility.yul\":7:133   */\ntag_9:\n    /* \"#utility.yul\":44:51   */\n  0x00\n    /* \"#utility.yul\":84:126   */\n  0xffffffffffffffffffffffffffffffffffffffff\n    /* \"#utility.yul\":77:82   */\n  dup3\n    /* \"#utility.yul\":73:127   */\n  and\n    /* \"#utility.yul\":62:127   */\n  swap1\n  pop\n    /* \"#utility.yul\":7:133   */\n  swap2\n  swap1\n  pop\n  jump\t// out\n    /* \"#utility.yul\":139:235   */\ntag_10:\n    /* \"#utility.yul\":176:183   */\n  0x00\n    /* \"#utility.yul\":205:229   */\n  tag_15\n    /* \"#utility.yul\":223:228   */\n  dup3\n    /* \"#utility.yul\":205:229   */\n  tag_9\n  jump\t// in\ntag_15:\n    /* \"#utility.yul\":194:229   */\n  swap1\n  pop\n    /* \"#utility.yul\":139:235   */\n  swap2\n  swap1\n  pop\n  jump\t// out\n    /* \"#utility.yul\":241:359   */\ntag_11:\n    /* \"#utility.yul\":328:352   */\n  tag_17\n    /* \"#utility.yul\":346:351   */\n  dup2\n    /* \"#utility.yul\":328:352   */\n  tag_10\n  jump\t// in\ntag_17:\n    /* \"#utility.yul\":323:326   */\n  dup3\n    /* \"#utility.yul\":316:353   */\n  mstore\n    /* \"#utility.yul\":241:359   */\n  pop\n  pop\n  jump\t// out\n    /* \"#utility.yul\":365:697   */\ntag_7:\n    /* \"#utility.yul\":486:490   */\n  0x00\n    /* \"#utility.yul\":524:526   */\n  0x40\n    /* \"#utility.yul\":513:522   */\n  dup3\n    /* \"#utility.yul\":509:527   */\n  add\n    /* \"#utility.yul\":501:527   */\n  swap1\n  pop\n    /* \"#utility.yul\":537:608   */\n  tag_19\n    /* \"#utility.yul\":605:606   */\n  0x00\n    /* \"#utility.yul\":594:603   */\n  dup4\n    /* \"#utility.yul\":590:607   */\n  add\n    /* \"#utility.yul\":581:587   */\n  dup6\n    /* \"#utility.yul\":537:608   */\n  tag_11\n  jump\t// in\ntag_19:\n    /* \"#utility.yul\":618:690   */\n  tag_20\n    /* \"#utility.yul\":686:688   */\n  0x20\n    /* \"#utility.yul\":675:684   */\n  dup4\n    /* \"#utility.yul\":671:689   */\n  add\n    /* \"#utility.yul\":662:668   */\n  dup5\n    /* \"#utility.yul\":618:690   */\n  tag_11\n  jump\t// in\ntag_20:\n    /* \"#utility.yul\":365:697   */\n  swap4\n  swap3\n  pop\n  pop\n  pop\n  jump\t// out\n    /* \"contracts/Transaction.sol\":1192:2430  contract Transaction is ReentrancyGuard {... */\ntag_8:\n  dataSize(sub_0)\n  dup1\n  dataOffset(sub_0)\n  0x00\n  codecopy\n  0x00\n  return\nstop\n\nsub_0: assembly {\n        /* \"contracts/Transaction.sol\":1192:2430  contract Transaction is ReentrancyGuard {... */\n      mstore(0x40, 0x80)\n      callvalue\n      dup1\n      iszero\n      tag_1\n      jumpi\n      0x00\n      dup1\n      revert\n    tag_1:\n      pop\n      jumpi(tag_2, lt(calldatasize, 0x04))\n      shr(0xe0, calldataload(0x00))\n      dup1\n      0x4bf2e99b\n      eq\n      tag_3\n      jumpi\n      dup1\n      0x74667906\n      eq\n      tag_4\n      jumpi\n      dup1\n      0x8da5cb5b\n      eq\n      tag_5\n      jumpi\n      dup1\n      0xa9ab232b\n      eq\n      tag_6\n      jumpi\n      dup1\n      0xb7013dc1\n      eq\n      tag_7\n      jumpi\n      dup1\n      0xbb09d9b7\n      eq\n      tag_8\n      jumpi\n    tag_2:\n      0x00\n      dup1\n      revert\n        /* \"contracts/Transaction.sol\":1366:1455  address public constant USDC_ADDRESS_SEPOLIA = 0x1c7D4B196Cb0C7B01d743Fbc6116a902379C7238 */\n    tag_3:\n      tag_9\n      tag_10\n      jump\t// in\n    tag_9:\n      mload(0x40)\n      tag_11\n      swap2\n      swap1\n      tag_12\n      jump\t// in\n    tag_11:\n      mload(0x40)\n      dup1\n      swap2\n      sub\n      swap1\n      return\n        /* \"contracts/Transaction.sol\":1264:1360  address public constant UNISWAP_POOLMANAGER_SEPOLIA = 0xC532a74256D3Db42D0Bf7a0400fEFDbad7694008 */\n    tag_4:\n      tag_13\n      tag_14\n      jump\t// in\n    tag_13:\n      mload(0x40)\n      tag_15\n      swap2\n      swap1\n      tag_12\n      jump\t// in\n    tag_15:\n      mload(0x40)\n      dup1\n      swap2\n      sub\n      swap1\n      return\n        /* \"contracts/Transaction.sol\":1522:1542  address public owner */\n    tag_5:\n      tag_16\n      tag_17\n      jump\t// in\n    tag_16:\n      mload(0x40)\n      tag_18\n      swap2\n      swap1\n      tag_12\n      jump\t// in\n    tag_18:\n      mload(0x40)\n      dup1\n      swap2\n      sub\n      swap1\n      return\n        /* \"contracts/Transaction.sol\":1934:2296  function executeSwap (... */\n    tag_6:\n      tag_19\n      0x04\n      dup1\n      calldatasize\n      sub\n      dup2\n      add\n      swap1\n      tag_20\n      swap2\n      swap1\n      tag_21\n      jump\t// in\n    tag_20:\n      tag_22\n      jump\t// in\n    tag_19:\n      mload(0x40)\n      tag_23\n      swap3\n      swap2\n      swap1\n      tag_24\n      jump\t// in\n    tag_23:\n      mload(0x40)\n      dup1\n      swap2\n      sub\n      swap1\n      return\n        /* \"contracts/Transaction.sol\":2330:2428  function getUserBalance() public view returns (uint256) {... */\n    tag_7:\n      tag_25\n      tag_26\n      jump\t// in\n    tag_25:\n      mload(0x40)\n      tag_27\n      swap2\n      swap1\n      tag_28\n      jump\t// in\n    tag_27:\n      mload(0x40)\n      dup1\n      swap2\n      sub\n      swap1\n      return\n        /* \"contracts/Transaction.sol\":1462:1489  address public USDC_ADDRESS */\n    tag_8:\n      tag_29\n      tag_30\n      jump\t// in\n    tag_29:\n      mload(0x40)\n      tag_31\n      swap2\n      swap1\n      tag_12\n      jump\t// in\n    tag_31:\n      mload(0x40)\n      dup1\n      swap2\n      sub\n      swap1\n      return\n        /* \"contracts/Transaction.sol\":1366:1455  address public constant USDC_ADDRESS_SEPOLIA = 0x1c7D4B196Cb0C7B01d743Fbc6116a902379C7238 */\n    tag_10:\n        /* \"contracts/Transaction.sol\":1413:1455  0x1c7D4B196Cb0C7B01d743Fbc6116a902379C7238 */\n      0x1c7d4b196cb0c7b01d743fbc6116a902379c7238\n        /* \"contracts/Transaction.sol\":1366:1455  address public constant USDC_ADDRESS_SEPOLIA = 0x1c7D4B196Cb0C7B01d743Fbc6116a902379C7238 */\n      dup2\n      jump\t// out\n        /* \"contracts/Transaction.sol\":1264:1360  address public constant UNISWAP_POOLMANAGER_SEPOLIA = 0xC532a74256D3Db42D0Bf7a0400fEFDbad7694008 */\n    tag_14:\n        /* \"contracts/Transaction.sol\":1318:1360  0xC532a74256D3Db42D0Bf7a0400fEFDbad7694008 */\n      0xc532a74256d3db42d0bf7a0400fefdbad7694008\n        /* \"contracts/Transaction.sol\":1264:1360  address public constant UNISWAP_POOLMANAGER_SEPOLIA = 0xC532a74256D3Db42D0Bf7a0400fEFDbad7694008 */\n      dup2\n      jump\t// out\n        /* \"contracts/Transaction.sol\":1522:1542  address public owner */\n    tag_17:\n      0x02\n      0x00\n      swap1\n      sload\n      swap1\n      0x0100\n      exp\n      swap1\n      div\n      0xffffffffffffffffffffffffffffffffffffffff\n      and\n      dup2\n      jump\t// out\n        /* \"contracts/Transaction.sol\":1934:2296  function executeSwap (... */\n    tag_22:\n        /* \"contracts/Transaction.sol\":2044:2059  uint256 userETH */\n      0x00\n        /* \"contracts/Transaction.sol\":2069:2087  uint256 gainOfUSDC */\n      dup1\n        /* \"contracts/Transaction.sol\":1877:1882  owner */\n      0x02\n      0x00\n      swap1\n      sload\n      swap1\n      0x0100\n      exp\n      swap1\n      div\n      0xffffffffffffffffffffffffffffffffffffffff\n      and\n        /* \"contracts/Transaction.sol\":1863:1882  msg.sender == owner */\n      0xffffffffffffffffffffffffffffffffffffffff\n      and\n        /* \"contracts/Transaction.sol\":1863:1873  msg.sender */\n      caller\n        /* \"contracts/Transaction.sol\":1863:1882  msg.sender == owner */\n      0xffffffffffffffffffffffffffffffffffffffff\n      and\n      eq\n        /* \"contracts/Transaction.sol\":1854:1910  require (msg.sender == owner, \"Only owner can do this.\") */\n      tag_33\n      jumpi\n      mload(0x40)\n      0x08c379a000000000000000000000000000000000000000000000000000000000\n      dup2\n      mstore\n      0x04\n      add\n      tag_34\n      swap1\n      tag_35\n      jump\t// in\n    tag_34:\n      mload(0x40)\n      dup1\n      swap2\n      sub\n      swap1\n      revert\n    tag_33:\n        /* \"@openzeppelin/contracts/security/ReentrancyGuard.sol\":2261:2282  _nonReentrantBefore() */\n      tag_37\n        /* \"@openzeppelin/contracts/security/ReentrancyGuard.sol\":2261:2280  _nonReentrantBefore */\n      tag_38\n        /* \"@openzeppelin/contracts/security/ReentrancyGuard.sol\":2261:2282  _nonReentrantBefore() */\n      jump\t// in\n    tag_37:\n        /* \"contracts/Transaction.sol\":2137:2149  balanceOfETH */\n      dup3\n        /* \"contracts/Transaction.sol\":2117:2133  getUserBalance() */\n      tag_40\n        /* \"contracts/Transaction.sol\":2117:2131  getUserBalance */\n      tag_26\n        /* \"contracts/Transaction.sol\":2117:2133  getUserBalance() */\n      jump\t// in\n    tag_40:\n        /* \"contracts/Transaction.sol\":2117:2149  getUserBalance() >= balanceOfETH */\n      lt\n      iszero\n        /* \"contracts/Transaction.sol\":2108:2171  require (getUserBalance() >= balanceOfETH, \"Insufficient ETH.\") */\n      tag_41\n      jumpi\n      mload(0x40)\n      0x08c379a000000000000000000000000000000000000000000000000000000000\n      dup2\n      mstore\n      0x04\n      add\n      tag_42\n      swap1\n      tag_43\n      jump\t// in\n    tag_42:\n      mload(0x40)\n      dup1\n      swap2\n      sub\n      swap1\n      revert\n    tag_41:\n        /* \"contracts/Transaction.sol\":2191:2207  getUserBalance() */\n      tag_44\n        /* \"contracts/Transaction.sol\":2191:2205  getUserBalance */\n      tag_26\n        /* \"contracts/Transaction.sol\":2191:2207  getUserBalance() */\n      jump\t// in\n    tag_44:\n        /* \"contracts/Transaction.sol\":2181:2207  userETH = getUserBalance() */\n      swap2\n      pop\n        /* \"contracts/Transaction.sol\":2246:2250  3039 */\n      0x0bdf\n        /* \"contracts/Transaction.sol\":2231:2243  balanceOfETH */\n      dup4\n        /* \"contracts/Transaction.sol\":2231:2250  balanceOfETH * 3039 */\n      tag_45\n      swap2\n      swap1\n      tag_46\n      jump\t// in\n    tag_45:\n        /* \"contracts/Transaction.sol\":2218:2250  gainOfUSDC = balanceOfETH * 3039 */\n      swap1\n      pop\n        /* \"@openzeppelin/contracts/security/ReentrancyGuard.sol\":2303:2323  _nonReentrantAfter() */\n      tag_47\n        /* \"@openzeppelin/contracts/security/ReentrancyGuard.sol\":2303:2321  _nonReentrantAfter */\n      tag_48\n        /* \"@openzeppelin/contracts/security/ReentrancyGuard.sol\":2303:2323  _nonReentrantAfter() */\n      jump\t// in\n    tag_47:\n        /* \"contracts/Transaction.sol\":1934:2296  function executeSwap (... */\n      swap2\n      pop\n      swap2\n      jump\t// out\n        /* \"contracts/Transaction.sol\":2330:2428  function getUserBalance() public view returns (uint256) {... */\n    tag_26:\n        /* \"contracts/Transaction.sol\":2377:2384  uint256 */\n      0x00\n        /* \"contracts/Transaction.sol\":2403:2413  msg.sender */\n      caller\n        /* \"contracts/Transaction.sol\":2403:2421  msg.sender.balance */\n      0xffffffffffffffffffffffffffffffffffffffff\n      and\n      balance\n        /* \"contracts/Transaction.sol\":2396:2421  return msg.sender.balance */\n      swap1\n      pop\n        /* \"contracts/Transaction.sol\":2330:2428  function getUserBalance() public view returns (uint256) {... */\n      swap1\n      jump\t// out\n        /* \"contracts/Transaction.sol\":1462:1489  address public USDC_ADDRESS */\n    tag_30:\n      0x01\n      0x00\n      swap1\n      sload\n      swap1\n      0x0100\n      exp\n      swap1\n      div\n      0xffffffffffffffffffffffffffffffffffffffff\n      and\n      dup2\n      jump\t// out\n        /* \"@openzeppelin/contracts/security/ReentrancyGuard.sol\":2336:2623  function _nonReentrantBefore() private {... */\n    tag_38:\n        /* \"@openzeppelin/contracts/security/ReentrancyGuard.sol\":1759:1760  2 */\n      0x02\n        /* \"@openzeppelin/contracts/security/ReentrancyGuard.sol\":2468:2475  _status */\n      sload(0x00)\n        /* \"@openzeppelin/contracts/security/ReentrancyGuard.sol\":2468:2487  _status != _ENTERED */\n      sub\n        /* \"@openzeppelin/contracts/security/ReentrancyGuard.sol\":2460:2523  require(_status != _ENTERED, \"ReentrancyGuard: reentrant call\") */\n      tag_51\n      jumpi\n      mload(0x40)\n      0x08c379a000000000000000000000000000000000000000000000000000000000\n      dup2\n      mstore\n      0x04\n      add\n      tag_52\n      swap1\n      tag_53\n      jump\t// in\n    tag_52:\n      mload(0x40)\n      dup1\n      swap2\n      sub\n      swap1\n      revert\n    tag_51:\n        /* \"@openzeppelin/contracts/security/ReentrancyGuard.sol\":1759:1760  2 */\n      0x02\n        /* \"@openzeppelin/contracts/security/ReentrancyGuard.sol\":2598:2605  _status */\n      0x00\n        /* \"@openzeppelin/contracts/security/ReentrancyGuard.sol\":2598:2616  _status = _ENTERED */\n      dup2\n      swap1\n      sstore\n      pop\n        /* \"@openzeppelin/contracts/security/ReentrancyGuard.sol\":2336:2623  function _nonReentrantBefore() private {... */\n      jump\t// out\n        /* \"@openzeppelin/contracts/security/ReentrancyGuard.sol\":2629:2838  function _nonReentrantAfter() private {... */\n    tag_48:\n        /* \"@openzeppelin/contracts/security/ReentrancyGuard.sol\":1716:1717  1 */\n      0x01\n        /* \"@openzeppelin/contracts/security/ReentrancyGuard.sol\":2809:2816  _status */\n      0x00\n        /* \"@openzeppelin/contracts/security/ReentrancyGuard.sol\":2809:2831  _status = _NOT_ENTERED */\n      dup2\n      swap1\n      sstore\n      pop\n        /* \"@openzeppelin/contracts/security/ReentrancyGuard.sol\":2629:2838  function _nonReentrantAfter() private {... */\n      jump\t// out\n        /* \"#utility.yul\":7:133   */\n    tag_55:\n        /* \"#utility.yul\":44:51   */\n      0x00\n        /* \"#utility.yul\":84:126   */\n      0xffffffffffffffffffffffffffffffffffffffff\n        /* \"#utility.yul\":77:82   */\n      dup3\n        /* \"#utility.yul\":73:127   */\n      and\n        /* \"#utility.yul\":62:127   */\n      swap1\n      pop\n        /* \"#utility.yul\":7:133   */\n      swap2\n      swap1\n      pop\n      jump\t// out\n        /* \"#utility.yul\":139:235   */\n    tag_56:\n        /* \"#utility.yul\":176:183   */\n      0x00\n        /* \"#utility.yul\":205:229   */\n      tag_76\n        /* \"#utility.yul\":223:228   */\n      dup3\n        /* \"#utility.yul\":205:229   */\n      tag_55\n      jump\t// in\n    tag_76:\n        /* \"#utility.yul\":194:229   */\n      swap1\n      pop\n        /* \"#utility.yul\":139:235   */\n      swap2\n      swap1\n      pop\n      jump\t// out\n        /* \"#utility.yul\":241:359   */\n    tag_57:\n        /* \"#utility.yul\":328:352   */\n      tag_78\n        /* \"#utility.yul\":346:351   */\n      dup2\n        /* \"#utility.yul\":328:352   */\n      tag_56\n      jump\t// in\n    tag_78:\n        /* \"#utility.yul\":323:326   */\n      dup3\n        /* \"#utility.yul\":316:353   */\n      mstore\n        /* \"#utility.yul\":241:359   */\n      pop\n      pop\n      jump\t// out\n        /* \"#utility.yul\":365:587   */\n    tag_12:\n        /* \"#utility.yul\":458:462   */\n      0x00\n        /* \"#utility.yul\":496:498   */\n      0x20\n        /* \"#utility.yul\":485:494   */\n      dup3\n        /* \"#utility.yul\":481:499   */\n      add\n        /* \"#utility.yul\":473:499   */\n      swap1\n      pop\n        /* \"#utility.yul\":509:580   */\n      tag_80\n        /* \"#utility.yul\":577:578   */\n      0x00\n        /* \"#utility.yul\":566:575   */\n      dup4\n        /* \"#utility.yul\":562:579   */\n      add\n        /* \"#utility.yul\":553:559   */\n      dup5\n        /* \"#utility.yul\":509:580   */\n      tag_57\n      jump\t// in\n    tag_80:\n        /* \"#utility.yul\":365:587   */\n      swap3\n      swap2\n      pop\n      pop\n      jump\t// out\n        /* \"#utility.yul\":674:791   */\n    tag_59:\n        /* \"#utility.yul\":783:784   */\n      0x00\n        /* \"#utility.yul\":780:781   */\n      dup1\n        /* \"#utility.yul\":773:785   */\n      revert\n        /* \"#utility.yul\":920:997   */\n    tag_61:\n        /* \"#utility.yul\":957:964   */\n      0x00\n        /* \"#utility.yul\":986:991   */\n      dup2\n        /* \"#utility.yul\":975:991   */\n      swap1\n      pop\n        /* \"#utility.yul\":920:997   */\n      swap2\n      swap1\n      pop\n      jump\t// out\n        /* \"#utility.yul\":1003:1125   */\n    tag_62:\n        /* \"#utility.yul\":1076:1100   */\n      tag_86\n        /* \"#utility.yul\":1094:1099   */\n      dup2\n        /* \"#utility.yul\":1076:1100   */\n      tag_61\n      jump\t// in\n    tag_86:\n        /* \"#utility.yul\":1069:1074   */\n      dup2\n        /* \"#utility.yul\":1066:1101   */\n      eq\n        /* \"#utility.yul\":1056:1119   */\n      tag_87\n      jumpi\n        /* \"#utility.yul\":1115:1116   */\n      0x00\n        /* \"#utility.yul\":1112:1113   */\n      dup1\n        /* \"#utility.yul\":1105:1117   */\n      revert\n        /* \"#utility.yul\":1056:1119   */\n    tag_87:\n        /* \"#utility.yul\":1003:1125   */\n      pop\n      jump\t// out\n        /* \"#utility.yul\":1131:1270   */\n    tag_63:\n        /* \"#utility.yul\":1177:1182   */\n      0x00\n        /* \"#utility.yul\":1215:1221   */\n      dup2\n        /* \"#utility.yul\":1202:1222   */\n      calldataload\n        /* \"#utility.yul\":1193:1222   */\n      swap1\n      pop\n        /* \"#utility.yul\":1231:1264   */\n      tag_89\n        /* \"#utility.yul\":1258:1263   */\n      dup2\n        /* \"#utility.yul\":1231:1264   */\n      tag_62\n      jump\t// in\n    tag_89:\n        /* \"#utility.yul\":1131:1270   */\n      swap3\n      swap2\n      pop\n      pop\n      jump\t// out\n        /* \"#utility.yul\":1276:1605   */\n    tag_21:\n        /* \"#utility.yul\":1335:1341   */\n      0x00\n        /* \"#utility.yul\":1384:1386   */\n      0x20\n        /* \"#utility.yul\":1372:1381   */\n      dup3\n        /* \"#utility.yul\":1363:1370   */\n      dup5\n        /* \"#utility.yul\":1359:1382   */\n      sub\n        /* \"#utility.yul\":1355:1387   */\n      slt\n        /* \"#utility.yul\":1352:1471   */\n      iszero\n      tag_91\n      jumpi\n        /* \"#utility.yul\":1390:1469   */\n      tag_92\n      tag_59\n      jump\t// in\n    tag_92:\n        /* \"#utility.yul\":1352:1471   */\n    tag_91:\n        /* \"#utility.yul\":1510:1511   */\n      0x00\n        /* \"#utility.yul\":1535:1588   */\n      tag_93\n        /* \"#utility.yul\":1580:1587   */\n      dup5\n        /* \"#utility.yul\":1571:1577   */\n      dup3\n        /* \"#utility.yul\":1560:1569   */\n      dup6\n        /* \"#utility.yul\":1556:1578   */\n      add\n        /* \"#utility.yul\":1535:1588   */\n      tag_63\n      jump\t// in\n    tag_93:\n        /* \"#utility.yul\":1525:1588   */\n      swap2\n      pop\n        /* \"#utility.yul\":1481:1598   */\n      pop\n        /* \"#utility.yul\":1276:1605   */\n      swap3\n      swap2\n      pop\n      pop\n      jump\t// out\n        /* \"#utility.yul\":1611:1729   */\n    tag_64:\n        /* \"#utility.yul\":1698:1722   */\n      tag_95\n        /* \"#utility.yul\":1716:1721   */\n      dup2\n        /* \"#utility.yul\":1698:1722   */\n      tag_61\n      jump\t// in\n    tag_95:\n        /* \"#utility.yul\":1693:1696   */\n      dup3\n        /* \"#utility.yul\":1686:1723   */\n      mstore\n        /* \"#utility.yul\":1611:1729   */\n      pop\n      pop\n      jump\t// out\n        /* \"#utility.yul\":1735:2067   */\n    tag_24:\n        /* \"#utility.yul\":1856:1860   */\n      0x00\n        /* \"#utility.yul\":1894:1896   */\n      0x40\n        /* \"#utility.yul\":1883:1892   */\n      dup3\n        /* \"#utility.yul\":1879:1897   */\n      add\n        /* \"#utility.yul\":1871:1897   */\n      swap1\n      pop\n        /* \"#utility.yul\":1907:1978   */\n      tag_97\n        /* \"#utility.yul\":1975:1976   */\n      0x00\n        /* \"#utility.yul\":1964:1973   */\n      dup4\n        /* \"#utility.yul\":1960:1977   */\n      add\n        /* \"#utility.yul\":1951:1957   */\n      dup6\n        /* \"#utility.yul\":1907:1978   */\n      tag_64\n      jump\t// in\n    tag_97:\n        /* \"#utility.yul\":1988:2060   */\n      tag_98\n        /* \"#utility.yul\":2056:2058   */\n      0x20\n        /* \"#utility.yul\":2045:2054   */\n      dup4\n        /* \"#utility.yul\":2041:2059   */\n      add\n        /* \"#utility.yul\":2032:2038   */\n      dup5\n        /* \"#utility.yul\":1988:2060   */\n      tag_64\n      jump\t// in\n    tag_98:\n        /* \"#utility.yul\":1735:2067   */\n      swap4\n      swap3\n      pop\n      pop\n      pop\n      jump\t// out\n        /* \"#utility.yul\":2073:2295   */\n    tag_28:\n        /* \"#utility.yul\":2166:2170   */\n      0x00\n        /* \"#utility.yul\":2204:2206   */\n      0x20\n        /* \"#utility.yul\":2193:2202   */\n      dup3\n        /* \"#utility.yul\":2189:2207   */\n      add\n        /* \"#utility.yul\":2181:2207   */\n      swap1\n      pop\n        /* \"#utility.yul\":2217:2288   */\n      tag_100\n        /* \"#utility.yul\":2285:2286   */\n      0x00\n        /* \"#utility.yul\":2274:2283   */\n      dup4\n        /* \"#utility.yul\":2270:2287   */\n      add\n        /* \"#utility.yul\":2261:2267   */\n      dup5\n        /* \"#utility.yul\":2217:2288   */\n      tag_64\n      jump\t// in\n    tag_100:\n        /* \"#utility.yul\":2073:2295   */\n      swap3\n      swap2\n      pop\n      pop\n      jump\t// out\n        /* \"#utility.yul\":2301:2470   */\n    tag_65:\n        /* \"#utility.yul\":2385:2396   */\n      0x00\n        /* \"#utility.yul\":2419:2425   */\n      dup3\n        /* \"#utility.yul\":2414:2417   */\n      dup3\n        /* \"#utility.yul\":2407:2426   */\n      mstore\n        /* \"#utility.yul\":2459:2463   */\n      0x20\n        /* \"#utility.yul\":2454:2457   */\n      dup3\n        /* \"#utility.yul\":2450:2464   */\n      add\n        /* \"#utility.yul\":2435:2464   */\n      swap1\n      pop\n        /* \"#utility.yul\":2301:2470   */\n      swap3\n      swap2\n      pop\n      pop\n      jump\t// out\n        /* \"#utility.yul\":2476:2649   */\n    tag_66:\n        /* \"#utility.yul\":2616:2641   */\n      0x4f6e6c79206f776e65722063616e20646f20746869732e000000000000000000\n        /* \"#utility.yul\":2612:2613   */\n      0x00\n        /* \"#utility.yul\":2604:2610   */\n      dup3\n        /* \"#utility.yul\":2600:2614   */\n      add\n        /* \"#utility.yul\":2593:2642   */\n      mstore\n        /* \"#utility.yul\":2476:2649   */\n      pop\n      jump\t// out\n        /* \"#utility.yul\":2655:3021   */\n    tag_67:\n        /* \"#utility.yul\":2797:2800   */\n      0x00\n        /* \"#utility.yul\":2818:2885   */\n      tag_104\n        /* \"#utility.yul\":2882:2884   */\n      0x17\n        /* \"#utility.yul\":2877:2880   */\n      dup4\n        /* \"#utility.yul\":2818:2885   */\n      tag_65\n      jump\t// in\n    tag_104:\n        /* \"#utility.yul\":2811:2885   */\n      swap2\n      pop\n        /* \"#utility.yul\":2894:2987   */\n      tag_105\n        /* \"#utility.yul\":2983:2986   */\n      dup3\n        /* \"#utility.yul\":2894:2987   */\n      tag_66\n      jump\t// in\n    tag_105:\n        /* \"#utility.yul\":3012:3014   */\n      0x20\n        /* \"#utility.yul\":3007:3010   */\n      dup3\n        /* \"#utility.yul\":3003:3015   */\n      add\n        /* \"#utility.yul\":2996:3015   */\n      swap1\n      pop\n        /* \"#utility.yul\":2655:3021   */\n      swap2\n      swap1\n      pop\n      jump\t// out\n        /* \"#utility.yul\":3027:3446   */\n    tag_35:\n        /* \"#utility.yul\":3193:3197   */\n      0x00\n        /* \"#utility.yul\":3231:3233   */\n      0x20\n        /* \"#utility.yul\":3220:3229   */\n      dup3\n        /* \"#utility.yul\":3216:3234   */\n      add\n        /* \"#utility.yul\":3208:3234   */\n      swap1\n      pop\n        /* \"#utility.yul\":3280:3289   */\n      dup2\n        /* \"#utility.yul\":3274:3278   */\n      dup2\n        /* \"#utility.yul\":3270:3290   */\n      sub\n        /* \"#utility.yul\":3266:3267   */\n      0x00\n        /* \"#utility.yul\":3255:3264   */\n      dup4\n        /* \"#utility.yul\":3251:3268   */\n      add\n        /* \"#utility.yul\":3244:3291   */\n      mstore\n        /* \"#utility.yul\":3308:3439   */\n      tag_107\n        /* \"#utility.yul\":3434:3438   */\n      dup2\n        /* \"#utility.yul\":3308:3439   */\n      tag_67\n      jump\t// in\n    tag_107:\n        /* \"#utility.yul\":3300:3439   */\n      swap1\n      pop\n        /* \"#utility.yul\":3027:3446   */\n      swap2\n      swap1\n      pop\n      jump\t// out\n        /* \"#utility.yul\":3452:3619   */\n    tag_68:\n        /* \"#utility.yul\":3592:3611   */\n      0x496e73756666696369656e74204554482e000000000000000000000000000000\n        /* \"#utility.yul\":3588:3589   */\n      0x00\n        /* \"#utility.yul\":3580:3586   */\n      dup3\n        /* \"#utility.yul\":3576:3590   */\n      add\n        /* \"#utility.yul\":3569:3612   */\n      mstore\n        /* \"#utility.yul\":3452:3619   */\n      pop\n      jump\t// out\n        /* \"#utility.yul\":3625:3991   */\n    tag_69:\n        /* \"#utility.yul\":3767:3770   */\n      0x00\n        /* \"#utility.yul\":3788:3855   */\n      tag_110\n        /* \"#utility.yul\":3852:3854   */\n      0x11\n        /* \"#utility.yul\":3847:3850   */\n      dup4\n        /* \"#utility.yul\":3788:3855   */\n      tag_65\n      jump\t// in\n    tag_110:\n        /* \"#utility.yul\":3781:3855   */\n      swap2\n      pop\n        /* \"#utility.yul\":3864:3957   */\n      tag_111\n        /* \"#utility.yul\":3953:3956   */\n      dup3\n        /* \"#utility.yul\":3864:3957   */\n      tag_68\n      jump\t// in\n    tag_111:\n        /* \"#utility.yul\":3982:3984   */\n      0x20\n        /* \"#utility.yul\":3977:3980   */\n      dup3\n        /* \"#utility.yul\":3973:3985   */\n      add\n        /* \"#utility.yul\":3966:3985   */\n      swap1\n      pop\n        /* \"#utility.yul\":3625:3991   */\n      swap2\n      swap1\n      pop\n      jump\t// out\n        /* \"#utility.yul\":3997:4416   */\n    tag_43:\n        /* \"#utility.yul\":4163:4167   */\n      0x00\n        /* \"#utility.yul\":4201:4203   */\n      0x20\n        /* \"#utility.yul\":4190:4199   */\n      dup3\n        /* \"#utility.yul\":4186:4204   */\n      add\n        /* \"#utility.yul\":4178:4204   */\n      swap1\n      pop\n        /* \"#utility.yul\":4250:4259   */\n      dup2\n        /* \"#utility.yul\":4244:4248   */\n      dup2\n        /* \"#utility.yul\":4240:4260   */\n      sub\n        /* \"#utility.yul\":4236:4237   */\n      0x00\n        /* \"#utility.yul\":4225:4234   */\n      dup4\n        /* \"#utility.yul\":4221:4238   */\n      add\n        /* \"#utility.yul\":4214:4261   */\n      mstore\n        /* \"#utility.yul\":4278:4409   */\n      tag_113\n        /* \"#utility.yul\":4404:4408   */\n      dup2\n        /* \"#utility.yul\":4278:4409   */\n      tag_69\n      jump\t// in\n    tag_113:\n        /* \"#utility.yul\":4270:4409   */\n      swap1\n      pop\n        /* \"#utility.yul\":3997:4416   */\n      swap2\n      swap1\n      pop\n      jump\t// out\n        /* \"#utility.yul\":4422:4602   */\n    tag_70:\n        /* \"#utility.yul\":4470:4547   */\n      0x4e487b7100000000000000000000000000000000000000000000000000000000\n        /* \"#utility.yul\":4467:4468   */\n      0x00\n        /* \"#utility.yul\":4460:4548   */\n      mstore\n        /* \"#utility.yul\":4567:4571   */\n      0x11\n        /* \"#utility.yul\":4564:4565   */\n      0x04\n        /* \"#utility.yul\":4557:4572   */\n      mstore\n        /* \"#utility.yul\":4591:4595   */\n      0x24\n        /* \"#utility.yul\":4588:4589   */\n      0x00\n        /* \"#utility.yul\":4581:4596   */\n      revert\n        /* \"#utility.yul\":4608:5018   */\n    tag_46:\n        /* \"#utility.yul\":4648:4655   */\n      0x00\n        /* \"#utility.yul\":4671:4691   */\n      tag_116\n        /* \"#utility.yul\":4689:4690   */\n      dup3\n        /* \"#utility.yul\":4671:4691   */\n      tag_61\n      jump\t// in\n    tag_116:\n        /* \"#utility.yul\":4666:4691   */\n      swap2\n      pop\n        /* \"#utility.yul\":4705:4725   */\n      tag_117\n        /* \"#utility.yul\":4723:4724   */\n      dup4\n        /* \"#utility.yul\":4705:4725   */\n      tag_61\n      jump\t// in\n    tag_117:\n        /* \"#utility.yul\":4700:4725   */\n      swap3\n      pop\n        /* \"#utility.yul\":4760:4761   */\n      dup3\n        /* \"#utility.yul\":4757:4758   */\n      dup3\n        /* \"#utility.yul\":4753:4762   */\n      mul\n        /* \"#utility.yul\":4782:4812   */\n      tag_118\n        /* \"#utility.yul\":4800:4811   */\n      dup2\n        /* \"#utility.yul\":4782:4812   */\n      tag_61\n      jump\t// in\n    tag_118:\n        /* \"#utility.yul\":4771:4812   */\n      swap2\n      pop\n        /* \"#utility.yul\":4961:4962   */\n      dup3\n        /* \"#utility.yul\":4952:4959   */\n      dup3\n        /* \"#utility.yul\":4948:4963   */\n      div\n        /* \"#utility.yul\":4945:4946   */\n      dup5\n        /* \"#utility.yul\":4942:4964   */\n      eq\n        /* \"#utility.yul\":4922:4923   */\n      dup4\n        /* \"#utility.yul\":4915:4924   */\n      iszero\n        /* \"#utility.yul\":4895:4978   */\n      or\n        /* \"#utility.yul\":4872:5011   */\n      tag_119\n      jumpi\n        /* \"#utility.yul\":4991:5009   */\n      tag_120\n      tag_70\n      jump\t// in\n    tag_120:\n        /* \"#utility.yul\":4872:5011   */\n    tag_119:\n        /* \"#utility.yul\":4656:5018   */\n      pop\n        /* \"#utility.yul\":4608:5018   */\n      swap3\n      swap2\n      pop\n      pop\n      jump\t// out\n        /* \"#utility.yul\":5024:5205   */\n    tag_71:\n        /* \"#utility.yul\":5164:5197   */\n      0x5265656e7472616e637947756172643a207265656e7472616e742063616c6c00\n        /* \"#utility.yul\":5160:5161   */\n      0x00\n        /* \"#utility.yul\":5152:5158   */\n      dup3\n        /* \"#utility.yul\":5148:5162   */\n      add\n        /* \"#utility.yul\":5141:5198   */\n      mstore\n        /* \"#utility.yul\":5024:5205   */\n      pop\n      jump\t// out\n        /* \"#utility.yul\":5211:5577   */\n    tag_72:\n        /* \"#utility.yul\":5353:5356   */\n      0x00\n        /* \"#utility.yul\":5374:5441   */\n      tag_123\n        /* \"#utility.yul\":5438:5440   */\n      0x1f\n        /* \"#utility.yul\":5433:5436   */\n      dup4\n        /* \"#utility.yul\":5374:5441   */\n      tag_65\n      jump\t// in\n    tag_123:\n        /* \"#utility.yul\":5367:5441   */\n      swap2\n      pop\n        /* \"#utility.yul\":5450:5543   */\n      tag_124\n        /* \"#utility.yul\":5539:5542   */\n      dup3\n        /* \"#utility.yul\":5450:5543   */\n      tag_71\n      jump\t// in\n    tag_124:\n        /* \"#utility.yul\":5568:5570   */\n      0x20\n        /* \"#utility.yul\":5563:5566   */\n      dup3\n        /* \"#utility.yul\":5559:5571   */\n      add\n        /* \"#utility.yul\":5552:5571   */\n      swap1\n      pop\n        /* \"#utility.yul\":5211:5577   */\n      swap2\n      swap1\n      pop\n      jump\t// out\n        /* \"#utility.yul\":5583:6002   */\n    tag_53:\n        /* \"#utility.yul\":5749:5753   */\n      0x00\n        /* \"#utility.yul\":5787:5789   */\n      0x20\n        /* \"#utility.yul\":5776:5785   */\n      dup3\n        /* \"#utility.yul\":5772:5790   */\n      add\n        /* \"#utility.yul\":5764:5790   */\n      swap1\n      pop\n        /* \"#utility.yul\":5836:5845   */\n      dup2\n        /* \"#utility.yul\":5830:5834   */\n      dup2\n        /* \"#utility.yul\":5826:5846   */\n      sub\n        /* \"#utility.yul\":5822:5823   */\n      0x00\n        /* \"#utility.yul\":5811:5820   */\n      dup4\n        /* \"#utility.yul\":5807:5824   */\n      add\n        /* \"#utility.yul\":5800:5847   */\n      mstore\n        /* \"#utility.yul\":5864:5995   */\n      tag_126\n        /* \"#utility.yul\":5990:5994   */\n      dup2\n        /* \"#utility.yul\":5864:5995   */\n      tag_72\n      jump\t// in\n    tag_126:\n        /* \"#utility.yul\":5856:5995   */\n      swap1\n      pop\n        /* \"#utility.yul\":5583:6002   */\n      swap2\n      swap1\n      pop\n      jump\t// out\n\n    auxdata: 0xa26469706673582212200cb6961f08a50a21ddfd000e8283beeacec058ec0c618ecd8e59febd6d596de264736f6c634300081a0033\n}\n",
				"bytecode": {
					"linkReferences": {},
					"object": "608060405234801561000f575f80fd5b5060015f819055503360025f6101000a81548173ffffffffffffffffffffffffffffffffffffffff021916908373ffffffffffffffffffffffffffffffffffffffff160217905550731c7d4b196cb0c7b01d743fbc6116a902379c723860015f6101000a81548173ffffffffffffffffffffffffffffffffffffffff021916908373ffffffffffffffffffffffffffffffffffffffff1602179055507f33c981baba081f8fd2c52ac6ad1ea95b6814b4376640f55689051f658472968860025f9054906101000a900473ffffffffffffffffffffffffffffffffffffffff1660015f9054906101000a900473ffffffffffffffffffffffffffffffffffffffff1660405161011e92919061016a565b60405180910390a1610191565b5f73ffffffffffffffffffffffffffffffffffffffff82169050919050565b5f6101548261012b565b9050919050565b6101648161014a565b82525050565b5f60408201905061017d5f83018561015b565b61018a602083018461015b565b9392505050565b6106188061019e5f395ff3fe608060405234801561000f575f80fd5b5060043610610060575f3560e01c80634bf2e99b1461006457806374667906146100825780638da5cb5b146100a0578063a9ab232b146100be578063b7013dc1146100ef578063bb09d9b71461010d575b5f80fd5b61006c61012b565b6040516100799190610362565b60405180910390f35b61008a610143565b6040516100979190610362565b60405180910390f35b6100a861015b565b6040516100b59190610362565b60405180910390f35b6100d860048036038101906100d391906103b2565b610180565b6040516100e69291906103ec565b60405180910390f35b6100f761028a565b6040516101049190610413565b60405180910390f35b6101156102a8565b6040516101229190610362565b60405180910390f35b731c7d4b196cb0c7b01d743fbc6116a902379c723881565b73c532a74256d3db42d0bf7a0400fefdbad769400881565b60025f9054906101000a900473ffffffffffffffffffffffffffffffffffffffff1681565b5f8060025f9054906101000a900473ffffffffffffffffffffffffffffffffffffffff1673ffffffffffffffffffffffffffffffffffffffff163373ffffffffffffffffffffffffffffffffffffffff1614610211576040517f08c379a000000000000000000000000000000000000000000000000000000000815260040161020890610486565b60405180910390fd5b6102196102cd565b8261022261028a565b1015610263576040517f08c379a000000000000000000000000000000000000000000000000000000000815260040161025a906104ee565b60405180910390fd5b61026b61028a565b9150610bdf8361027b9190610539565b905061028561031a565b915091565b5f3373ffffffffffffffffffffffffffffffffffffffff1631905090565b60015f9054906101000a900473ffffffffffffffffffffffffffffffffffffffff1681565b60025f5403610311576040517f08c379a0000000000000000000000000000000000000000000000000000000008152600401610308906105c4565b60405180910390fd5b60025f81905550565b60015f81905550565b5f73ffffffffffffffffffffffffffffffffffffffff82169050919050565b5f61034c82610323565b9050919050565b61035c81610342565b82525050565b5f6020820190506103755f830184610353565b92915050565b5f80fd5b5f819050919050565b6103918161037f565b811461039b575f80fd5b50565b5f813590506103ac81610388565b92915050565b5f602082840312156103c7576103c661037b565b5b5f6103d48482850161039e565b91505092915050565b6103e68161037f565b82525050565b5f6040820190506103ff5f8301856103dd565b61040c60208301846103dd565b9392505050565b5f6020820190506104265f8301846103dd565b92915050565b5f82825260208201905092915050565b7f4f6e6c79206f776e65722063616e20646f20746869732e0000000000000000005f82015250565b5f61047060178361042c565b915061047b8261043c565b602082019050919050565b5f6020820190508181035f83015261049d81610464565b9050919050565b7f496e73756666696369656e74204554482e0000000000000000000000000000005f82015250565b5f6104d860118361042c565b91506104e3826104a4565b602082019050919050565b5f6020820190508181035f830152610505816104cc565b9050919050565b7f4e487b71000000000000000000000000000000000000000000000000000000005f52601160045260245ffd5b5f6105438261037f565b915061054e8361037f565b925082820261055c8161037f565b915082820484148315176105735761057261050c565b5b5092915050565b7f5265656e7472616e637947756172643a207265656e7472616e742063616c6c005f82015250565b5f6105ae601f8361042c565b91506105b98261057a565b602082019050919050565b5f6020820190508181035f8301526105db816105a2565b905091905056fea26469706673582212200cb6961f08a50a21ddfd000e8283beeacec058ec0c618ecd8e59febd6d596de264736f6c634300081a0033",
					"opcodes": "PUSH1 0x80 PUSH1 0x40 MSTORE CALLVALUE DUP1 ISZERO PUSH2 0xF JUMPI PUSH0 DUP1 REVERT JUMPDEST POP PUSH1 0x1 PUSH0 DUP2 SWAP1 SSTORE POP CALLER PUSH1 0x2 PUSH0 PUSH2 0x100 EXP DUP2 SLOAD DUP2 PUSH20 0xFFFFFFFFFFFFFFFFFFFFFFFFFFFFFFFFFFFFFFFF MUL NOT AND SWAP1 DUP4 PUSH20 0xFFFFFFFFFFFFFFFFFFFFFFFFFFFFFFFFFFFFFFFF AND MUL OR SWAP1 SSTORE POP PUSH20 0x1C7D4B196CB0C7B01D743FBC6116A902379C7238 PUSH1 0x1 PUSH0 PUSH2 0x100 EXP DUP2 SLOAD DUP2 PUSH20 0xFFFFFFFFFFFFFFFFFFFFFFFFFFFFFFFFFFFFFFFF MUL NOT AND SWAP1 DUP4 PUSH20 0xFFFFFFFFFFFFFFFFFFFFFFFFFFFFFFFFFFFFFFFF AND MUL OR SWAP1 SSTORE POP PUSH32 0x33C981BABA081F8FD2C52AC6AD1EA95B6814B4376640F55689051F6584729688 PUSH1 0x2 PUSH0 SWAP1 SLOAD SWAP1 PUSH2 0x100 EXP SWAP1 DIV PUSH20 0xFFFFFFFFFFFFFFFFFFFFFFFFFFFFFFFFFFFFFFFF AND PUSH1 0x1 PUSH0 SWAP1 SLOAD SWAP1 PUSH2 0x100 EXP SWAP1 DIV PUSH20 0xFFFFFFFFFFFFFFFFFFFFFFFFFFFFFFFFFFFFFFFF AND PUSH1 0x40 MLOAD PUSH2 0x11E SWAP3 SWAP2 SWAP1 PUSH2 0x16A JUMP JUMPDEST PUSH1 0x40 MLOAD DUP1 SWAP2 SUB SWAP1 LOG1 PUSH2 0x191 JUMP JUMPDEST PUSH0 PUSH20 0xFFFFFFFFFFFFFFFFFFFFFFFFFFFFFFFFFFFFFFFF DUP3 AND SWAP1 POP SWAP2 SWAP1 POP JUMP JUMPDEST PUSH0 PUSH2 0x154 DUP3 PUSH2 0x12B JUMP JUMPDEST SWAP1 POP SWAP2 SWAP1 POP JUMP JUMPDEST PUSH2 0x164 DUP2 PUSH2 0x14A JUMP JUMPDEST DUP3 MSTORE POP POP JUMP JUMPDEST PUSH0 PUSH1 0x40 DUP3 ADD SWAP1 POP PUSH2 0x17D PUSH0 DUP4 ADD DUP6 PUSH2 0x15B JUMP JUMPDEST PUSH2 0x18A PUSH1 0x20 DUP4 ADD DUP5 PUSH2 0x15B JUMP JUMPDEST SWAP4 SWAP3 POP POP POP JUMP JUMPDEST PUSH2 0x618 DUP1 PUSH2 0x19E PUSH0 CODECOPY PUSH0 RETURN INVALID PUSH1 0x80 PUSH1 0x40 MSTORE CALLVALUE DUP1 ISZERO PUSH2 0xF JUMPI PUSH0 DUP1 REVERT JUMPDEST POP PUSH1 0x4 CALLDATASIZE LT PUSH2 0x60 JUMPI PUSH0 CALLDATALOAD PUSH1 0xE0 SHR DUP1 PUSH4 0x4BF2E99B EQ PUSH2 0x64 JUMPI DUP1 PUSH4 0x74667906 EQ PUSH2 0x82 JUMPI DUP1 PUSH4 0x8DA5CB5B EQ PUSH2 0xA0 JUMPI DUP1 PUSH4 0xA9AB232B EQ PUSH2 0xBE JUMPI DUP1 PUSH4 0xB7013DC1 EQ PUSH2 0xEF JUMPI DUP1 PUSH4 0xBB09D9B7 EQ PUSH2 0x10D JUMPI JUMPDEST PUSH0 DUP1 REVERT JUMPDEST PUSH2 0x6C PUSH2 0x12B JUMP JUMPDEST PUSH1 0x40 MLOAD PUSH2 0x79 SWAP2 SWAP1 PUSH2 0x362 JUMP JUMPDEST PUSH1 0x40 MLOAD DUP1 SWAP2 SUB SWAP1 RETURN JUMPDEST PUSH2 0x8A PUSH2 0x143 JUMP JUMPDEST PUSH1 0x40 MLOAD PUSH2 0x97 SWAP2 SWAP1 PUSH2 0x362 JUMP JUMPDEST PUSH1 0x40 MLOAD DUP1 SWAP2 SUB SWAP1 RETURN JUMPDEST PUSH2 0xA8 PUSH2 0x15B JUMP JUMPDEST PUSH1 0x40 MLOAD PUSH2 0xB5 SWAP2 SWAP1 PUSH2 0x362 JUMP JUMPDEST PUSH1 0x40 MLOAD DUP1 SWAP2 SUB SWAP1 RETURN JUMPDEST PUSH2 0xD8 PUSH1 0x4 DUP1 CALLDATASIZE SUB DUP2 ADD SWAP1 PUSH2 0xD3 SWAP2 SWAP1 PUSH2 0x3B2 JUMP JUMPDEST PUSH2 0x180 JUMP JUMPDEST PUSH1 0x40 MLOAD PUSH2 0xE6 SWAP3 SWAP2 SWAP1 PUSH2 0x3EC JUMP JUMPDEST PUSH1 0x40 MLOAD DUP1 SWAP2 SUB SWAP1 RETURN JUMPDEST PUSH2 0xF7 PUSH2 0x28A JUMP JUMPDEST PUSH1 0x40 MLOAD PUSH2 0x104 SWAP2 SWAP1 PUSH2 0x413 JUMP JUMPDEST PUSH1 0x40 MLOAD DUP1 SWAP2 SUB SWAP1 RETURN JUMPDEST PUSH2 0x115 PUSH2 0x2A8 JUMP JUMPDEST PUSH1 0x40 MLOAD PUSH2 0x122 SWAP2 SWAP1 PUSH2 0x362 JUMP JUMPDEST PUSH1 0x40 MLOAD DUP1 SWAP2 SUB SWAP1 RETURN JUMPDEST PUSH20 0x1C7D4B196CB0C7B01D743FBC6116A902379C7238 DUP2 JUMP JUMPDEST PUSH20 0xC532A74256D3DB42D0BF7A0400FEFDBAD7694008 DUP2 JUMP JUMPDEST PUSH1 0x2 PUSH0 SWAP1 SLOAD SWAP1 PUSH2 0x100 EXP SWAP1 DIV PUSH20 0xFFFFFFFFFFFFFFFFFFFFFFFFFFFFFFFFFFFFFFFF AND DUP2 JUMP JUMPDEST PUSH0 DUP1 PUSH1 0x2 PUSH0 SWAP1 SLOAD SWAP1 PUSH2 0x100 EXP SWAP1 DIV PUSH20 0xFFFFFFFFFFFFFFFFFFFFFFFFFFFFFFFFFFFFFFFF AND PUSH20 0xFFFFFFFFFFFFFFFFFFFFFFFFFFFFFFFFFFFFFFFF AND CALLER PUSH20 0xFFFFFFFFFFFFFFFFFFFFFFFFFFFFFFFFFFFFFFFF AND EQ PUSH2 0x211 JUMPI PUSH1 0x40 MLOAD PUSH32 0x8C379A000000000000000000000000000000000000000000000000000000000 DUP2 MSTORE PUSH1 0x4 ADD PUSH2 0x208 SWAP1 PUSH2 0x486 JUMP JUMPDEST PUSH1 0x40 MLOAD DUP1 SWAP2 SUB SWAP1 REVERT JUMPDEST PUSH2 0x219 PUSH2 0x2CD JUMP JUMPDEST DUP3 PUSH2 0x222 PUSH2 0x28A JUMP JUMPDEST LT ISZERO PUSH2 0x263 JUMPI PUSH1 0x40 MLOAD PUSH32 0x8C379A000000000000000000000000000000000000000000000000000000000 DUP2 MSTORE PUSH1 0x4 ADD PUSH2 0x25A SWAP1 PUSH2 0x4EE JUMP JUMPDEST PUSH1 0x40 MLOAD DUP1 SWAP2 SUB SWAP1 REVERT JUMPDEST PUSH2 0x26B PUSH2 0x28A JUMP JUMPDEST SWAP2 POP PUSH2 0xBDF DUP4 PUSH2 0x27B SWAP2 SWAP1 PUSH2 0x539 JUMP JUMPDEST SWAP1 POP PUSH2 0x285 PUSH2 0x31A JUMP JUMPDEST SWAP2 POP SWAP2 JUMP JUMPDEST PUSH0 CALLER PUSH20 0xFFFFFFFFFFFFFFFFFFFFFFFFFFFFFFFFFFFFFFFF AND BALANCE SWAP1 POP SWAP1 JUMP JUMPDEST PUSH1 0x1 PUSH0 SWAP1 SLOAD SWAP1 PUSH2 0x100 EXP SWAP1 DIV PUSH20 0xFFFFFFFFFFFFFFFFFFFFFFFFFFFFFFFFFFFFFFFF AND DUP2 JUMP JUMPDEST PUSH1 0x2 PUSH0 SLOAD SUB PUSH2 0x311 JUMPI PUSH1 0x40 MLOAD PUSH32 0x8C379A000000000000000000000000000000000000000000000000000000000 DUP2 MSTORE PUSH1 0x4 ADD PUSH2 0x308 SWAP1 PUSH2 0x5C4 JUMP JUMPDEST PUSH1 0x40 MLOAD DUP1 SWAP2 SUB SWAP1 REVERT JUMPDEST PUSH1 0x2 PUSH0 DUP2 SWAP1 SSTORE POP JUMP JUMPDEST PUSH1 0x1 PUSH0 DUP2 SWAP1 SSTORE POP JUMP JUMPDEST PUSH0 PUSH20 0xFFFFFFFFFFFFFFFFFFFFFFFFFFFFFFFFFFFFFFFF DUP3 AND SWAP1 POP SWAP2 SWAP1 POP JUMP JUMPDEST PUSH0 PUSH2 0x34C DUP3 PUSH2 0x323 JUMP JUMPDEST SWAP1 POP SWAP2 SWAP1 POP JUMP JUMPDEST PUSH2 0x35C DUP2 PUSH2 0x342 JUMP JUMPDEST DUP3 MSTORE POP POP JUMP JUMPDEST PUSH0 PUSH1 0x20 DUP3 ADD SWAP1 POP PUSH2 0x375 PUSH0 DUP4 ADD DUP5 PUSH2 0x353 JUMP JUMPDEST SWAP3 SWAP2 POP POP JUMP JUMPDEST PUSH0 DUP1 REVERT JUMPDEST PUSH0 DUP2 SWAP1 POP SWAP2 SWAP1 POP JUMP JUMPDEST PUSH2 0x391 DUP2 PUSH2 0x37F JUMP JUMPDEST DUP2 EQ PUSH2 0x39B JUMPI PUSH0 DUP1 REVERT JUMPDEST POP JUMP JUMPDEST PUSH0 DUP2 CALLDATALOAD SWAP1 POP PUSH2 0x3AC DUP2 PUSH2 0x388 JUMP JUMPDEST SWAP3 SWAP2 POP POP JUMP JUMPDEST PUSH0 PUSH1 0x20 DUP3 DUP5 SUB SLT ISZERO PUSH2 0x3C7 JUMPI PUSH2 0x3C6 PUSH2 0x37B JUMP JUMPDEST JUMPDEST PUSH0 PUSH2 0x3D4 DUP5 DUP3 DUP6 ADD PUSH2 0x39E JUMP JUMPDEST SWAP2 POP POP SWAP3 SWAP2 POP POP JUMP JUMPDEST PUSH2 0x3E6 DUP2 PUSH2 0x37F JUMP JUMPDEST DUP3 MSTORE POP POP JUMP JUMPDEST PUSH0 PUSH1 0x40 DUP3 ADD SWAP1 POP PUSH2 0x3FF PUSH0 DUP4 ADD DUP6 PUSH2 0x3DD JUMP JUMPDEST PUSH2 0x40C PUSH1 0x20 DUP4 ADD DUP5 PUSH2 0x3DD JUMP JUMPDEST SWAP4 SWAP3 POP POP POP JUMP JUMPDEST PUSH0 PUSH1 0x20 DUP3 ADD SWAP1 POP PUSH2 0x426 PUSH0 DUP4 ADD DUP5 PUSH2 0x3DD JUMP JUMPDEST SWAP3 SWAP2 POP POP JUMP JUMPDEST PUSH0 DUP3 DUP3 MSTORE PUSH1 0x20 DUP3 ADD SWAP1 POP SWAP3 SWAP2 POP POP JUMP JUMPDEST PUSH32 0x4F6E6C79206F776E65722063616E20646F20746869732E000000000000000000 PUSH0 DUP3 ADD MSTORE POP JUMP JUMPDEST PUSH0 PUSH2 0x470 PUSH1 0x17 DUP4 PUSH2 0x42C JUMP JUMPDEST SWAP2 POP PUSH2 0x47B DUP3 PUSH2 0x43C JUMP JUMPDEST PUSH1 0x20 DUP3 ADD SWAP1 POP SWAP2 SWAP1 POP JUMP JUMPDEST PUSH0 PUSH1 0x20 DUP3 ADD SWAP1 POP DUP2 DUP2 SUB PUSH0 DUP4 ADD MSTORE PUSH2 0x49D DUP2 PUSH2 0x464 JUMP JUMPDEST SWAP1 POP SWAP2 SWAP1 POP JUMP JUMPDEST PUSH32 0x496E73756666696369656E74204554482E000000000000000000000000000000 PUSH0 DUP3 ADD MSTORE POP JUMP JUMPDEST PUSH0 PUSH2 0x4D8 PUSH1 0x11 DUP4 PUSH2 0x42C JUMP JUMPDEST SWAP2 POP PUSH2 0x4E3 DUP3 PUSH2 0x4A4 JUMP JUMPDEST PUSH1 0x20 DUP3 ADD SWAP1 POP SWAP2 SWAP1 POP JUMP JUMPDEST PUSH0 PUSH1 0x20 DUP3 ADD SWAP1 POP DUP2 DUP2 SUB PUSH0 DUP4 ADD MSTORE PUSH2 0x505 DUP2 PUSH2 0x4CC JUMP JUMPDEST SWAP1 POP SWAP2 SWAP1 POP JUMP JUMPDEST PUSH32 0x4E487B7100000000000000000000000000000000000000000000000000000000 PUSH0 MSTORE PUSH1 0x11 PUSH1 0x4 MSTORE PUSH1 0x24 PUSH0 REVERT JUMPDEST PUSH0 PUSH2 0x543 DUP3 PUSH2 0x37F JUMP JUMPDEST SWAP2 POP PUSH2 0x54E DUP4 PUSH2 0x37F JUMP JUMPDEST SWAP3 POP DUP3 DUP3 MUL PUSH2 0x55C DUP2 PUSH2 0x37F JUMP JUMPDEST SWAP2 POP DUP3 DUP3 DIV DUP5 EQ DUP4 ISZERO OR PUSH2 0x573 JUMPI PUSH2 0x572 PUSH2 0x50C JUMP JUMPDEST JUMPDEST POP SWAP3 SWAP2 POP POP JUMP JUMPDEST PUSH32 0x5265656E7472616E637947756172643A207265656E7472616E742063616C6C00 PUSH0 DUP3 ADD MSTORE POP JUMP JUMPDEST PUSH0 PUSH2 0x5AE PUSH1 0x1F DUP4 PUSH2 0x42C JUMP JUMPDEST SWAP2 POP PUSH2 0x5B9 DUP3 PUSH2 0x57A JUMP JUMPDEST PUSH1 0x20 DUP3 ADD SWAP1 POP SWAP2 SWAP1 POP JUMP JUMPDEST PUSH0 PUSH1 0x20 DUP3 ADD SWAP1 POP DUP2 DUP2 SUB PUSH0 DUP4 ADD MSTORE PUSH2 0x5DB DUP2 PUSH2 0x5A2 JUMP JUMPDEST SWAP1 POP SWAP2 SWAP1 POP JUMP INVALID LOG2 PUSH5 0x6970667358 0x22 SLT KECCAK256 0xC 0xB6 SWAP7 0x1F ADDMOD 0xA5 EXP 0x21 0xDD REVERT STOP 0xE DUP3 DUP4 0xBE 0xEA 0xCE 0xC0 PC 0xEC 0xC PUSH2 0x8ECD DUP15 MSIZE INVALID 0xBD PUSH14 0x596DE264736F6C634300081A0033 "
				},
				"gasEstimates": {
					"creation": {
						"codeDepositCost": "312000",
						"executionCost": "infinite",
						"totalCost": "infinite"
					},
					"external": {
						"UNISWAP_POOLMANAGER_SEPOLIA()": "373",
						"USDC_ADDRESS()": "2596",
						"USDC_ADDRESS_SEPOLIA()": "351",
						"executeSwap(uint256)": "infinite",
						"getUserBalance()": "3003",
						"owner()": "2530"
					}
				},
				"methodIdentifiers": {
					"UNISWAP_POOLMANAGER_SEPOLIA()": "74667906",
					"USDC_ADDRESS()": "bb09d9b7",
					"USDC_ADDRESS_SEPOLIA()": "4bf2e99b",
					"executeSwap(uint256)": "a9ab232b",
					"getUserBalance()": "b7013dc1",
					"owner()": "8da5cb5b"
				}
			},
			"storageLayout": {
				"storage": [
					{
						"astId": 10,
						"contract": "contracts/Transaction.sol:Transaction",
						"label": "_status",
						"offset": 0,
						"slot": "0",
						"type": "t_uint256"
					},
					{
						"astId": 4601,
						"contract": "contracts/Transaction.sol:Transaction",
						"label": "USDC_ADDRESS",
						"offset": 0,
						"slot": "1",
						"type": "t_address"
					},
					{
						"astId": 4603,
						"contract": "contracts/Transaction.sol:Transaction",
						"label": "owner",
						"offset": 0,
						"slot": "2",
						"type": "t_address"
					}
				],
				"types": {
					"t_address": {
						"encoding": "inplace",
						"label": "address",
						"numberOfBytes": "20"
					},
					"t_uint256": {
						"encoding": "inplace",
						"label": "uint256",
						"numberOfBytes": "32"
					}
				}
			},
			"userdoc": {
				"kind": "user",
				"methods": {},
				"notice": "1、 什麼是重入攻擊? 如何預防? 重入攻擊（Reentrancy Attack）：重入攻擊發生在一個外部呼叫（External Call）在完成前，回調到原合約，造成惡意使用者重複提款或其他非預期的行為。 預防方法：在執行任何操作之前，先檢查所有前提條件。更新合約的內部狀態變數必須在任何外部呼叫之前完成。 2、 三種 send Ether 的方式具體差異為何? transfer()：如果發送失敗會自動還原（revert）整個交易。 send()：如果發送失敗，不會自動還原交易，而是返回 false，所以需要自行檢查返回值來處理發送失敗的情況。 call()：如果呼叫失敗，不會自動還原交易，只會將 success 設定為 false，因此必須自行檢查 success 的返回值。",
				"version": 1
			}
		}
	}
}