{
	"@uniswap/v4-periphery/src/base/ImmutableState.sol": {
		"ImmutableState": {
			"abi": [
				{
					"inputs": [
						{
							"internalType": "contract IPoolManager",
							"name": "_poolManager",
							"type": "address"
						}
					],
					"stateMutability": "nonpayable",
					"type": "constructor"
				},
				{
					"inputs": [],
					"name": "NotPoolManager",
					"type": "error"
				},
				{
					"inputs": [],
					"name": "poolManager",
					"outputs": [
						{
							"internalType": "contract IPoolManager",
							"name": "",
							"type": "address"
						}
					],
					"stateMutability": "view",
					"type": "function"
				}
			],
			"devdoc": {
				"kind": "dev",
				"methods": {},
				"title": "Immutable State",
				"version": 1
			},
			"evm": {
				"assembly": "    /* \"@uniswap/v4-periphery/src/base/ImmutableState.sol\":326:817  contract ImmutableState is IImmutableState {... */\n  mstore(0x40, 0xa0)\n    /* \"@uniswap/v4-periphery/src/base/ImmutableState.sol\":733:815  constructor(IPoolManager _poolManager) {... */\n  callvalue\n  dup1\n  iszero\n  tag_1\n  jumpi\n  0x00\n  dup1\n  revert\ntag_1:\n  pop\n  mload(0x40)\n  sub(codesize, bytecodeSize)\n  dup1\n  bytecodeSize\n  dup4\n  codecopy\n  dup2\n  dup2\n  add\n  0x40\n  mstore\n  dup2\n  add\n  swap1\n  tag_2\n  swap2\n  swap1\n  tag_3\n  jump\t// in\ntag_2:\n    /* \"@uniswap/v4-periphery/src/base/ImmutableState.sol\":796:808  _poolManager */\n  dup1\n    /* \"@uniswap/v4-periphery/src/base/ImmutableState.sol\":782:808  poolManager = _poolManager */\n  0xffffffffffffffffffffffffffffffffffffffff\n  and\n  0x80\n  dup2\n  0xffffffffffffffffffffffffffffffffffffffff\n  and\n  dup2\n  mstore\n  pop\n  pop\n    /* \"@uniswap/v4-periphery/src/base/ImmutableState.sol\":733:815  constructor(IPoolManager _poolManager) {... */\n  pop\n    /* \"@uniswap/v4-periphery/src/base/ImmutableState.sol\":326:817  contract ImmutableState is IImmutableState {... */\n  jump(tag_6)\n    /* \"#utility.yul\":88:205   */\ntag_8:\n    /* \"#utility.yul\":197:198   */\n  0x00\n    /* \"#utility.yul\":194:195   */\n  dup1\n    /* \"#utility.yul\":187:199   */\n  revert\n    /* \"#utility.yul\":334:460   */\ntag_10:\n    /* \"#utility.yul\":371:378   */\n  0x00\n    /* \"#utility.yul\":411:453   */\n  0xffffffffffffffffffffffffffffffffffffffff\n    /* \"#utility.yul\":404:409   */\n  dup3\n    /* \"#utility.yul\":400:454   */\n  and\n    /* \"#utility.yul\":389:454   */\n  swap1\n  pop\n    /* \"#utility.yul\":334:460   */\n  swap2\n  swap1\n  pop\n  jump\t// out\n    /* \"#utility.yul\":466:562   */\ntag_11:\n    /* \"#utility.yul\":503:510   */\n  0x00\n    /* \"#utility.yul\":532:556   */\n  tag_21\n    /* \"#utility.yul\":550:555   */\n  dup3\n    /* \"#utility.yul\":532:556   */\n  tag_10\n  jump\t// in\ntag_21:\n    /* \"#utility.yul\":521:556   */\n  swap1\n  pop\n    /* \"#utility.yul\":466:562   */\n  swap2\n  swap1\n  pop\n  jump\t// out\n    /* \"#utility.yul\":568:684   */\ntag_12:\n    /* \"#utility.yul\":625:632   */\n  0x00\n    /* \"#utility.yul\":654:678   */\n  tag_23\n    /* \"#utility.yul\":672:677   */\n  dup3\n    /* \"#utility.yul\":654:678   */\n  tag_11\n  jump\t// in\ntag_23:\n    /* \"#utility.yul\":643:678   */\n  swap1\n  pop\n    /* \"#utility.yul\":568:684   */\n  swap2\n  swap1\n  pop\n  jump\t// out\n    /* \"#utility.yul\":690:852   */\ntag_13:\n    /* \"#utility.yul\":783:827   */\n  tag_25\n    /* \"#utility.yul\":821:826   */\n  dup2\n    /* \"#utility.yul\":783:827   */\n  tag_12\n  jump\t// in\ntag_25:\n    /* \"#utility.yul\":776:781   */\n  dup2\n    /* \"#utility.yul\":773:828   */\n  eq\n    /* \"#utility.yul\":763:846   */\n  tag_26\n  jumpi\n    /* \"#utility.yul\":842:843   */\n  0x00\n    /* \"#utility.yul\":839:840   */\n  dup1\n    /* \"#utility.yul\":832:844   */\n  revert\n    /* \"#utility.yul\":763:846   */\ntag_26:\n    /* \"#utility.yul\":690:852   */\n  pop\n  jump\t// out\n    /* \"#utility.yul\":858:1041   */\ntag_14:\n    /* \"#utility.yul\":935:940   */\n  0x00\n    /* \"#utility.yul\":966:972   */\n  dup2\n    /* \"#utility.yul\":960:973   */\n  mload\n    /* \"#utility.yul\":951:973   */\n  swap1\n  pop\n    /* \"#utility.yul\":982:1035   */\n  tag_28\n    /* \"#utility.yul\":1029:1034   */\n  dup2\n    /* \"#utility.yul\":982:1035   */\n  tag_13\n  jump\t// in\ntag_28:\n    /* \"#utility.yul\":858:1041   */\n  swap3\n  swap2\n  pop\n  pop\n  jump\t// out\n    /* \"#utility.yul\":1047:1438   */\ntag_3:\n    /* \"#utility.yul\":1137:1143   */\n  0x00\n    /* \"#utility.yul\":1186:1188   */\n  0x20\n    /* \"#utility.yul\":1174:1183   */\n  dup3\n    /* \"#utility.yul\":1165:1172   */\n  dup5\n    /* \"#utility.yul\":1161:1184   */\n  sub\n    /* \"#utility.yul\":1157:1189   */\n  slt\n    /* \"#utility.yul\":1154:1273   */\n  iszero\n  tag_30\n  jumpi\n    /* \"#utility.yul\":1192:1271   */\n  tag_31\n  tag_8\n  jump\t// in\ntag_31:\n    /* \"#utility.yul\":1154:1273   */\ntag_30:\n    /* \"#utility.yul\":1312:1313   */\n  0x00\n    /* \"#utility.yul\":1337:1421   */\n  tag_32\n    /* \"#utility.yul\":1413:1420   */\n  dup5\n    /* \"#utility.yul\":1404:1410   */\n  dup3\n    /* \"#utility.yul\":1393:1402   */\n  dup6\n    /* \"#utility.yul\":1389:1411   */\n  add\n    /* \"#utility.yul\":1337:1421   */\n  tag_14\n  jump\t// in\ntag_32:\n    /* \"#utility.yul\":1327:1421   */\n  swap2\n  pop\n    /* \"#utility.yul\":1283:1431   */\n  pop\n    /* \"#utility.yul\":1047:1438   */\n  swap3\n  swap2\n  pop\n  pop\n  jump\t// out\n    /* \"@uniswap/v4-periphery/src/base/ImmutableState.sol\":326:817  contract ImmutableState is IImmutableState {... */\ntag_6:\n  mload(0x80)\n  codecopy(0x00, dataOffset(sub_0), dataSize(sub_0))\n  0x00\n  assignImmutable(\"0x51d0cb0b5ba6857b20520d4dd499f647130b147969fefadb61b62cf25e761252\")\n  return(0x00, dataSize(sub_0))\nstop\n\nsub_0: assembly {\n        /* \"@uniswap/v4-periphery/src/base/ImmutableState.sol\":326:817  contract ImmutableState is IImmutableState {... */\n      mstore(0x40, 0x80)\n      callvalue\n      dup1\n      iszero\n      tag_1\n      jumpi\n      0x00\n      dup1\n      revert\n    tag_1:\n      pop\n      jumpi(tag_2, lt(calldatasize, 0x04))\n      shr(0xe0, calldataload(0x00))\n      dup1\n      0xdc4c90d3\n      eq\n      tag_3\n      jumpi\n    tag_2:\n      0x00\n      dup1\n      revert\n        /* \"@uniswap/v4-periphery/src/base/ImmutableState.sol\":411:452  IPoolManager public immutable poolManager */\n    tag_3:\n      tag_4\n      tag_5\n      jump\t// in\n    tag_4:\n      mload(0x40)\n      tag_6\n      swap2\n      swap1\n      tag_7\n      jump\t// in\n    tag_6:\n      mload(0x40)\n      dup1\n      swap2\n      sub\n      swap1\n      return\n    tag_5:\n      immutable(\"0x51d0cb0b5ba6857b20520d4dd499f647130b147969fefadb61b62cf25e761252\")\n      dup2\n      jump\t// out\n        /* \"#utility.yul\":7:133   */\n    tag_8:\n        /* \"#utility.yul\":44:51   */\n      0x00\n        /* \"#utility.yul\":84:126   */\n      0xffffffffffffffffffffffffffffffffffffffff\n        /* \"#utility.yul\":77:82   */\n      dup3\n        /* \"#utility.yul\":73:127   */\n      and\n        /* \"#utility.yul\":62:127   */\n      swap1\n      pop\n        /* \"#utility.yul\":7:133   */\n      swap2\n      swap1\n      pop\n      jump\t// out\n        /* \"#utility.yul\":139:199   */\n    tag_9:\n        /* \"#utility.yul\":167:170   */\n      0x00\n        /* \"#utility.yul\":188:193   */\n      dup2\n        /* \"#utility.yul\":181:193   */\n      swap1\n      pop\n        /* \"#utility.yul\":139:199   */\n      swap2\n      swap1\n      pop\n      jump\t// out\n        /* \"#utility.yul\":205:347   */\n    tag_10:\n        /* \"#utility.yul\":255:264   */\n      0x00\n        /* \"#utility.yul\":288:341   */\n      tag_18\n        /* \"#utility.yul\":306:340   */\n      tag_19\n        /* \"#utility.yul\":315:339   */\n      tag_20\n        /* \"#utility.yul\":333:338   */\n      dup5\n        /* \"#utility.yul\":315:339   */\n      tag_8\n      jump\t// in\n    tag_20:\n        /* \"#utility.yul\":306:340   */\n      tag_9\n      jump\t// in\n    tag_19:\n        /* \"#utility.yul\":288:341   */\n      tag_8\n      jump\t// in\n    tag_18:\n        /* \"#utility.yul\":275:341   */\n      swap1\n      pop\n        /* \"#utility.yul\":205:347   */\n      swap2\n      swap1\n      pop\n      jump\t// out\n        /* \"#utility.yul\":353:479   */\n    tag_11:\n        /* \"#utility.yul\":403:412   */\n      0x00\n        /* \"#utility.yul\":436:473   */\n      tag_22\n        /* \"#utility.yul\":467:472   */\n      dup3\n        /* \"#utility.yul\":436:473   */\n      tag_10\n      jump\t// in\n    tag_22:\n        /* \"#utility.yul\":423:473   */\n      swap1\n      pop\n        /* \"#utility.yul\":353:479   */\n      swap2\n      swap1\n      pop\n      jump\t// out\n        /* \"#utility.yul\":485:631   */\n    tag_12:\n        /* \"#utility.yul\":555:564   */\n      0x00\n        /* \"#utility.yul\":588:625   */\n      tag_24\n        /* \"#utility.yul\":619:624   */\n      dup3\n        /* \"#utility.yul\":588:625   */\n      tag_11\n      jump\t// in\n    tag_24:\n        /* \"#utility.yul\":575:625   */\n      swap1\n      pop\n        /* \"#utility.yul\":485:631   */\n      swap2\n      swap1\n      pop\n      jump\t// out\n        /* \"#utility.yul\":637:808   */\n    tag_13:\n        /* \"#utility.yul\":744:801   */\n      tag_26\n        /* \"#utility.yul\":795:800   */\n      dup2\n        /* \"#utility.yul\":744:801   */\n      tag_12\n      jump\t// in\n    tag_26:\n        /* \"#utility.yul\":739:742   */\n      dup3\n        /* \"#utility.yul\":732:802   */\n      mstore\n        /* \"#utility.yul\":637:808   */\n      pop\n      pop\n      jump\t// out\n        /* \"#utility.yul\":814:1076   */\n    tag_7:\n        /* \"#utility.yul\":927:931   */\n      0x00\n        /* \"#utility.yul\":965:967   */\n      0x20\n        /* \"#utility.yul\":954:963   */\n      dup3\n        /* \"#utility.yul\":950:968   */\n      add\n        /* \"#utility.yul\":942:968   */\n      swap1\n      pop\n        /* \"#utility.yul\":978:1069   */\n      tag_28\n        /* \"#utility.yul\":1066:1067   */\n      0x00\n        /* \"#utility.yul\":1055:1064   */\n      dup4\n        /* \"#utility.yul\":1051:1068   */\n      add\n        /* \"#utility.yul\":1042:1048   */\n      dup5\n        /* \"#utility.yul\":978:1069   */\n      tag_13\n      jump\t// in\n    tag_28:\n        /* \"#utility.yul\":814:1076   */\n      swap3\n      swap2\n      pop\n      pop\n      jump\t// out\n\n    auxdata: 0xa2646970667358221220d074c6c5c64f3b3fa053486ea0af0935232fa92e7af9c6783758829b5078aeab64736f6c634300081a0033\n}\n",
				"bytecode": {
					"linkReferences": {},
					"object": "60a060405234801561000f575f80fd5b5060405161023f38038061023f833981810160405281019061003191906100da565b8073ffffffffffffffffffffffffffffffffffffffff1660808173ffffffffffffffffffffffffffffffffffffffff168152505050610105565b5f80fd5b5f73ffffffffffffffffffffffffffffffffffffffff82169050919050565b5f6100988261006f565b9050919050565b5f6100a98261008e565b9050919050565b6100b98161009f565b81146100c3575f80fd5b50565b5f815190506100d4816100b0565b92915050565b5f602082840312156100ef576100ee61006b565b5b5f6100fc848285016100c6565b91505092915050565b60805161012361011c5f395f604601526101235ff3fe6080604052348015600e575f80fd5b50600436106026575f3560e01c8063dc4c90d314602a575b5f80fd5b60306044565b604051603b919060d6565b60405180910390f35b7f000000000000000000000000000000000000000000000000000000000000000081565b5f73ffffffffffffffffffffffffffffffffffffffff82169050919050565b5f819050919050565b5f60a460a0609c846068565b6087565b6068565b9050919050565b5f60b3826090565b9050919050565b5f60c28260ab565b9050919050565b60d08160ba565b82525050565b5f60208201905060e75f83018460c9565b9291505056fea2646970667358221220d074c6c5c64f3b3fa053486ea0af0935232fa92e7af9c6783758829b5078aeab64736f6c634300081a0033",
					"opcodes": "PUSH1 0xA0 PUSH1 0x40 MSTORE CALLVALUE DUP1 ISZERO PUSH2 0xF JUMPI PUSH0 DUP1 REVERT JUMPDEST POP PUSH1 0x40 MLOAD PUSH2 0x23F CODESIZE SUB DUP1 PUSH2 0x23F DUP4 CODECOPY DUP2 DUP2 ADD PUSH1 0x40 MSTORE DUP2 ADD SWAP1 PUSH2 0x31 SWAP2 SWAP1 PUSH2 0xDA JUMP JUMPDEST DUP1 PUSH20 0xFFFFFFFFFFFFFFFFFFFFFFFFFFFFFFFFFFFFFFFF AND PUSH1 0x80 DUP2 PUSH20 0xFFFFFFFFFFFFFFFFFFFFFFFFFFFFFFFFFFFFFFFF AND DUP2 MSTORE POP POP POP PUSH2 0x105 JUMP JUMPDEST PUSH0 DUP1 REVERT JUMPDEST PUSH0 PUSH20 0xFFFFFFFFFFFFFFFFFFFFFFFFFFFFFFFFFFFFFFFF DUP3 AND SWAP1 POP SWAP2 SWAP1 POP JUMP JUMPDEST PUSH0 PUSH2 0x98 DUP3 PUSH2 0x6F JUMP JUMPDEST SWAP1 POP SWAP2 SWAP1 POP JUMP JUMPDEST PUSH0 PUSH2 0xA9 DUP3 PUSH2 0x8E JUMP JUMPDEST SWAP1 POP SWAP2 SWAP1 POP JUMP JUMPDEST PUSH2 0xB9 DUP2 PUSH2 0x9F JUMP JUMPDEST DUP2 EQ PUSH2 0xC3 JUMPI PUSH0 DUP1 REVERT JUMPDEST POP JUMP JUMPDEST PUSH0 DUP2 MLOAD SWAP1 POP PUSH2 0xD4 DUP2 PUSH2 0xB0 JUMP JUMPDEST SWAP3 SWAP2 POP POP JUMP JUMPDEST PUSH0 PUSH1 0x20 DUP3 DUP5 SUB SLT ISZERO PUSH2 0xEF JUMPI PUSH2 0xEE PUSH2 0x6B JUMP JUMPDEST JUMPDEST PUSH0 PUSH2 0xFC DUP5 DUP3 DUP6 ADD PUSH2 0xC6 JUMP JUMPDEST SWAP2 POP POP SWAP3 SWAP2 POP POP JUMP JUMPDEST PUSH1 0x80 MLOAD PUSH2 0x123 PUSH2 0x11C PUSH0 CODECOPY PUSH0 PUSH1 0x46 ADD MSTORE PUSH2 0x123 PUSH0 RETURN INVALID PUSH1 0x80 PUSH1 0x40 MSTORE CALLVALUE DUP1 ISZERO PUSH1 0xE JUMPI PUSH0 DUP1 REVERT JUMPDEST POP PUSH1 0x4 CALLDATASIZE LT PUSH1 0x26 JUMPI PUSH0 CALLDATALOAD PUSH1 0xE0 SHR DUP1 PUSH4 0xDC4C90D3 EQ PUSH1 0x2A JUMPI JUMPDEST PUSH0 DUP1 REVERT JUMPDEST PUSH1 0x30 PUSH1 0x44 JUMP JUMPDEST PUSH1 0x40 MLOAD PUSH1 0x3B SWAP2 SWAP1 PUSH1 0xD6 JUMP JUMPDEST PUSH1 0x40 MLOAD DUP1 SWAP2 SUB SWAP1 RETURN JUMPDEST PUSH32 0x0 DUP2 JUMP JUMPDEST PUSH0 PUSH20 0xFFFFFFFFFFFFFFFFFFFFFFFFFFFFFFFFFFFFFFFF DUP3 AND SWAP1 POP SWAP2 SWAP1 POP JUMP JUMPDEST PUSH0 DUP2 SWAP1 POP SWAP2 SWAP1 POP JUMP JUMPDEST PUSH0 PUSH1 0xA4 PUSH1 0xA0 PUSH1 0x9C DUP5 PUSH1 0x68 JUMP JUMPDEST PUSH1 0x87 JUMP JUMPDEST PUSH1 0x68 JUMP JUMPDEST SWAP1 POP SWAP2 SWAP1 POP JUMP JUMPDEST PUSH0 PUSH1 0xB3 DUP3 PUSH1 0x90 JUMP JUMPDEST SWAP1 POP SWAP2 SWAP1 POP JUMP JUMPDEST PUSH0 PUSH1 0xC2 DUP3 PUSH1 0xAB JUMP JUMPDEST SWAP1 POP SWAP2 SWAP1 POP JUMP JUMPDEST PUSH1 0xD0 DUP2 PUSH1 0xBA JUMP JUMPDEST DUP3 MSTORE POP POP JUMP JUMPDEST PUSH0 PUSH1 0x20 DUP3 ADD SWAP1 POP PUSH1 0xE7 PUSH0 DUP4 ADD DUP5 PUSH1 0xC9 JUMP JUMPDEST SWAP3 SWAP2 POP POP JUMP INVALID LOG2 PUSH5 0x6970667358 0x22 SLT KECCAK256 0xD0 PUSH21 0xC6C5C64F3B3FA053486EA0AF0935232FA92E7AF9C6 PUSH25 0x3758829B5078AEAB64736F6C634300081A0033000000000000 "
				},
				"gasEstimates": {
					"creation": {
						"codeDepositCost": "58200",
						"executionCost": "infinite",
						"totalCost": "infinite"
					},
					"external": {
						"poolManager()": "infinite"
					}
				},
				"methodIdentifiers": {
					"poolManager()": "dc4c90d3"
				}
			},
			"storageLayout": {
				"storage": [],
				"types": null
			},
			"userdoc": {
				"errors": {
					"NotPoolManager()": [
						{
							"notice": "Thrown when the caller is not PoolManager"
						}
					]
				},
				"kind": "user",
				"methods": {
					"poolManager()": {
						"notice": "The Uniswap v4 PoolManager contract"
					}
				},
				"notice": "A collection of immutable state variables, commonly used across multiple contracts",
				"version": 1
			}
		}
	}
}