{
	"data": {
		"bytecode": {
			"linkReferences": {},
			"object": "608060405234801561000f575f80fd5b5060015f819055503360025f6101000a81548173ffffffffffffffffffffffffffffffffffffffff021916908373ffffffffffffffffffffffffffffffffffffffff160217905550731c7d4b196cb0c7b01d743fbc6116a902379c723860015f6101000a81548173ffffffffffffffffffffffffffffffffffffffff021916908373ffffffffffffffffffffffffffffffffffffffff1602179055507f33c981baba081f8fd2c52ac6ad1ea95b6814b4376640f55689051f658472968860025f9054906101000a900473ffffffffffffffffffffffffffffffffffffffff1660015f9054906101000a900473ffffffffffffffffffffffffffffffffffffffff1660405161011e92919061016a565b60405180910390a1610191565b5f73ffffffffffffffffffffffffffffffffffffffff82169050919050565b5f6101548261012b565b9050919050565b6101648161014a565b82525050565b5f60408201905061017d5f83018561015b565b61018a602083018461015b565b9392505050565b6106188061019e5f395ff3fe608060405234801561000f575f80fd5b5060043610610060575f3560e01c80634bf2e99b1461006457806374667906146100825780638da5cb5b146100a0578063a9ab232b146100be578063b7013dc1146100ef578063bb09d9b71461010d575b5f80fd5b61006c61012b565b6040516100799190610362565b60405180910390f35b61008a610143565b6040516100979190610362565b60405180910390f35b6100a861015b565b6040516100b59190610362565b60405180910390f35b6100d860048036038101906100d391906103b2565b610180565b6040516100e69291906103ec565b60405180910390f35b6100f761028a565b6040516101049190610413565b60405180910390f35b6101156102a8565b6040516101229190610362565b60405180910390f35b731c7d4b196cb0c7b01d743fbc6116a902379c723881565b73c532a74256d3db42d0bf7a0400fefdbad769400881565b60025f9054906101000a900473ffffffffffffffffffffffffffffffffffffffff1681565b5f8060025f9054906101000a900473ffffffffffffffffffffffffffffffffffffffff1673ffffffffffffffffffffffffffffffffffffffff163373ffffffffffffffffffffffffffffffffffffffff1614610211576040517f08c379a000000000000000000000000000000000000000000000000000000000815260040161020890610486565b60405180910390fd5b6102196102cd565b8261022261028a565b1015610263576040517f08c379a000000000000000000000000000000000000000000000000000000000815260040161025a906104ee565b60405180910390fd5b61026b61028a565b9150610bdf8361027b9190610539565b905061028561031a565b915091565b5f3373ffffffffffffffffffffffffffffffffffffffff1631905090565b60015f9054906101000a900473ffffffffffffffffffffffffffffffffffffffff1681565b60025f5403610311576040517f08c379a0000000000000000000000000000000000000000000000000000000008152600401610308906105c4565b60405180910390fd5b60025f81905550565b60015f81905550565b5f73ffffffffffffffffffffffffffffffffffffffff82169050919050565b5f61034c82610323565b9050919050565b61035c81610342565b82525050565b5f6020820190506103755f830184610353565b92915050565b5f80fd5b5f819050919050565b6103918161037f565b811461039b575f80fd5b50565b5f813590506103ac81610388565b92915050565b5f602082840312156103c7576103c661037b565b5b5f6103d48482850161039e565b91505092915050565b6103e68161037f565b82525050565b5f6040820190506103ff5f8301856103dd565b61040c60208301846103dd565b9392505050565b5f6020820190506104265f8301846103dd565b92915050565b5f82825260208201905092915050565b7f4f6e6c79206f776e65722063616e20646f20746869732e0000000000000000005f82015250565b5f61047060178361042c565b915061047b8261043c565b602082019050919050565b5f6020820190508181035f83015261049d81610464565b9050919050565b7f496e73756666696369656e74204554482e0000000000000000000000000000005f82015250565b5f6104d860118361042c565b91506104e3826104a4565b602082019050919050565b5f6020820190508181035f830152610505816104cc565b9050919050565b7f4e487b71000000000000000000000000000000000000000000000000000000005f52601160045260245ffd5b5f6105438261037f565b915061054e8361037f565b925082820261055c8161037f565b915082820484148315176105735761057261050c565b5b5092915050565b7f5265656e7472616e637947756172643a207265656e7472616e742063616c6c005f82015250565b5f6105ae601f8361042c565b91506105b98261057a565b602082019050919050565b5f6020820190508181035f8301526105db816105a2565b905091905056fea26469706673582212200cb6961f08a50a21ddfd000e8283beeacec058ec0c618ecd8e59febd6d596de264736f6c634300081a0033",
			"opcodes": "PUSH1 0x80 PUSH1 0x40 MSTORE CALLVALUE DUP1 ISZERO PUSH2 0xF JUMPI PUSH0 DUP1 REVERT JUMPDEST POP PUSH1 0x1 PUSH0 DUP2 SWAP1 SSTORE POP CALLER PUSH1 0x2 PUSH0 PUSH2 0x100 EXP DUP2 SLOAD DUP2 PUSH20 0xFFFFFFFFFFFFFFFFFFFFFFFFFFFFFFFFFFFFFFFF MUL NOT AND SWAP1 DUP4 PUSH20 0xFFFFFFFFFFFFFFFFFFFFFFFFFFFFFFFFFFFFFFFF AND MUL OR SWAP1 SSTORE POP PUSH20 0x1C7D4B196CB0C7B01D743FBC6116A902379C7238 PUSH1 0x1 PUSH0 PUSH2 0x100 EXP DUP2 SLOAD DUP2 PUSH20 0xFFFFFFFFFFFFFFFFFFFFFFFFFFFFFFFFFFFFFFFF MUL NOT AND SWAP1 DUP4 PUSH20 0xFFFFFFFFFFFFFFFFFFFFFFFFFFFFFFFFFFFFFFFF AND MUL OR SWAP1 SSTORE POP PUSH32 0x33C981BABA081F8FD2C52AC6AD1EA95B6814B4376640F55689051F6584729688 PUSH1 0x2 PUSH0 SWAP1 SLOAD SWAP1 PUSH2 0x100 EXP SWAP1 DIV PUSH20 0xFFFFFFFFFFFFFFFFFFFFFFFFFFFFFFFFFFFFFFFF AND PUSH1 0x1 PUSH0 SWAP1 SLOAD SWAP1 PUSH2 0x100 EXP SWAP1 DIV PUSH20 0xFFFFFFFFFFFFFFFFFFFFFFFFFFFFFFFFFFFFFFFF AND PUSH1 0x40 MLOAD PUSH2 0x11E SWAP3 SWAP2 SWAP1 PUSH2 0x16A JUMP JUMPDEST PUSH1 0x40 MLOAD DUP1 SWAP2 SUB SWAP1 LOG1 PUSH2 0x191 JUMP JUMPDEST PUSH0 PUSH20 0xFFFFFFFFFFFFFFFFFFFFFFFFFFFFFFFFFFFFFFFF DUP3 AND SWAP1 POP SWAP2 SWAP1 POP JUMP JUMPDEST PUSH0 PUSH2 0x154 DUP3 PUSH2 0x12B JUMP JUMPDEST SWAP1 POP SWAP2 SWAP1 POP JUMP JUMPDEST PUSH2 0x164 DUP2 PUSH2 0x14A JUMP JUMPDEST DUP3 MSTORE POP POP JUMP JUMPDEST PUSH0 PUSH1 0x40 DUP3 ADD SWAP1 POP PUSH2 0x17D PUSH0 DUP4 ADD DUP6 PUSH2 0x15B JUMP JUMPDEST PUSH2 0x18A PUSH1 0x20 DUP4 ADD DUP5 PUSH2 0x15B JUMP JUMPDEST SWAP4 SWAP3 POP POP POP JUMP JUMPDEST PUSH2 0x618 DUP1 PUSH2 0x19E PUSH0 CODECOPY PUSH0 RETURN INVALID PUSH1 0x80 PUSH1 0x40 MSTORE CALLVALUE DUP1 ISZERO PUSH2 0xF JUMPI PUSH0 DUP1 REVERT JUMPDEST POP PUSH1 0x4 CALLDATASIZE LT PUSH2 0x60 JUMPI PUSH0 CALLDATALOAD PUSH1 0xE0 SHR DUP1 PUSH4 0x4BF2E99B EQ PUSH2 0x64 JUMPI DUP1 PUSH4 0x74667906 EQ PUSH2 0x82 JUMPI DUP1 PUSH4 0x8DA5CB5B EQ PUSH2 0xA0 JUMPI DUP1 PUSH4 0xA9AB232B EQ PUSH2 0xBE JUMPI DUP1 PUSH4 0xB7013DC1 EQ PUSH2 0xEF JUMPI DUP1 PUSH4 0xBB09D9B7 EQ PUSH2 0x10D JUMPI JUMPDEST PUSH0 DUP1 REVERT JUMPDEST PUSH2 0x6C PUSH2 0x12B JUMP JUMPDEST PUSH1 0x40 MLOAD PUSH2 0x79 SWAP2 SWAP1 PUSH2 0x362 JUMP JUMPDEST PUSH1 0x40 MLOAD DUP1 SWAP2 SUB SWAP1 RETURN JUMPDEST PUSH2 0x8A PUSH2 0x143 JUMP JUMPDEST PUSH1 0x40 MLOAD PUSH2 0x97 SWAP2 SWAP1 PUSH2 0x362 JUMP JUMPDEST PUSH1 0x40 MLOAD DUP1 SWAP2 SUB SWAP1 RETURN JUMPDEST PUSH2 0xA8 PUSH2 0x15B JUMP JUMPDEST PUSH1 0x40 MLOAD PUSH2 0xB5 SWAP2 SWAP1 PUSH2 0x362 JUMP JUMPDEST PUSH1 0x40 MLOAD DUP1 SWAP2 SUB SWAP1 RETURN JUMPDEST PUSH2 0xD8 PUSH1 0x4 DUP1 CALLDATASIZE SUB DUP2 ADD SWAP1 PUSH2 0xD3 SWAP2 SWAP1 PUSH2 0x3B2 JUMP JUMPDEST PUSH2 0x180 JUMP JUMPDEST PUSH1 0x40 MLOAD PUSH2 0xE6 SWAP3 SWAP2 SWAP1 PUSH2 0x3EC JUMP JUMPDEST PUSH1 0x40 MLOAD DUP1 SWAP2 SUB SWAP1 RETURN JUMPDEST PUSH2 0xF7 PUSH2 0x28A JUMP JUMPDEST PUSH1 0x40 MLOAD PUSH2 0x104 SWAP2 SWAP1 PUSH2 0x413 JUMP JUMPDEST PUSH1 0x40 MLOAD DUP1 SWAP2 SUB SWAP1 RETURN JUMPDEST PUSH2 0x115 PUSH2 0x2A8 JUMP JUMPDEST PUSH1 0x40 MLOAD PUSH2 0x122 SWAP2 SWAP1 PUSH2 0x362 JUMP JUMPDEST PUSH1 0x40 MLOAD DUP1 SWAP2 SUB SWAP1 RETURN JUMPDEST PUSH20 0x1C7D4B196CB0C7B01D743FBC6116A902379C7238 DUP2 JUMP JUMPDEST PUSH20 0xC532A74256D3DB42D0BF7A0400FEFDBAD7694008 DUP2 JUMP JUMPDEST PUSH1 0x2 PUSH0 SWAP1 SLOAD SWAP1 PUSH2 0x100 EXP SWAP1 DIV PUSH20 0xFFFFFFFFFFFFFFFFFFFFFFFFFFFFFFFFFFFFFFFF AND DUP2 JUMP JUMPDEST PUSH0 DUP1 PUSH1 0x2 PUSH0 SWAP1 SLOAD SWAP1 PUSH2 0x100 EXP SWAP1 DIV PUSH20 0xFFFFFFFFFFFFFFFFFFFFFFFFFFFFFFFFFFFFFFFF AND PUSH20 0xFFFFFFFFFFFFFFFFFFFFFFFFFFFFFFFFFFFFFFFF AND CALLER PUSH20 0xFFFFFFFFFFFFFFFFFFFFFFFFFFFFFFFFFFFFFFFF AND EQ PUSH2 0x211 JUMPI PUSH1 0x40 MLOAD PUSH32 0x8C379A000000000000000000000000000000000000000000000000000000000 DUP2 MSTORE PUSH1 0x4 ADD PUSH2 0x208 SWAP1 PUSH2 0x486 JUMP JUMPDEST PUSH1 0x40 MLOAD DUP1 SWAP2 SUB SWAP1 REVERT JUMPDEST PUSH2 0x219 PUSH2 0x2CD JUMP JUMPDEST DUP3 PUSH2 0x222 PUSH2 0x28A JUMP JUMPDEST LT ISZERO PUSH2 0x263 JUMPI PUSH1 0x40 MLOAD PUSH32 0x8C379A000000000000000000000000000000000000000000000000000000000 DUP2 MSTORE PUSH1 0x4 ADD PUSH2 0x25A SWAP1 PUSH2 0x4EE JUMP JUMPDEST PUSH1 0x40 MLOAD DUP1 SWAP2 SUB SWAP1 REVERT JUMPDEST PUSH2 0x26B PUSH2 0x28A JUMP JUMPDEST SWAP2 POP PUSH2 0xBDF DUP4 PUSH2 0x27B SWAP2 SWAP1 PUSH2 0x539 JUMP JUMPDEST SWAP1 POP PUSH2 0x285 PUSH2 0x31A JUMP JUMPDEST SWAP2 POP SWAP2 JUMP JUMPDEST PUSH0 CALLER PUSH20 0xFFFFFFFFFFFFFFFFFFFFFFFFFFFFFFFFFFFFFFFF AND BALANCE SWAP1 POP SWAP1 JUMP JUMPDEST PUSH1 0x1 PUSH0 SWAP1 SLOAD SWAP1 PUSH2 0x100 EXP SWAP1 DIV PUSH20 0xFFFFFFFFFFFFFFFFFFFFFFFFFFFFFFFFFFFFFFFF AND DUP2 JUMP JUMPDEST PUSH1 0x2 PUSH0 SLOAD SUB PUSH2 0x311 JUMPI PUSH1 0x40 MLOAD PUSH32 0x8C379A000000000000000000000000000000000000000000000000000000000 DUP2 MSTORE PUSH1 0x4 ADD PUSH2 0x308 SWAP1 PUSH2 0x5C4 JUMP JUMPDEST PUSH1 0x40 MLOAD DUP1 SWAP2 SUB SWAP1 REVERT JUMPDEST PUSH1 0x2 PUSH0 DUP2 SWAP1 SSTORE POP JUMP JUMPDEST PUSH1 0x1 PUSH0 DUP2 SWAP1 SSTORE POP JUMP JUMPDEST PUSH0 PUSH20 0xFFFFFFFFFFFFFFFFFFFFFFFFFFFFFFFFFFFFFFFF DUP3 AND SWAP1 POP SWAP2 SWAP1 POP JUMP JUMPDEST PUSH0 PUSH2 0x34C DUP3 PUSH2 0x323 JUMP JUMPDEST SWAP1 POP SWAP2 SWAP1 POP JUMP JUMPDEST PUSH2 0x35C DUP2 PUSH2 0x342 JUMP JUMPDEST DUP3 MSTORE POP POP JUMP JUMPDEST PUSH0 PUSH1 0x20 DUP3 ADD SWAP1 POP PUSH2 0x375 PUSH0 DUP4 ADD DUP5 PUSH2 0x353 JUMP JUMPDEST SWAP3 SWAP2 POP POP JUMP JUMPDEST PUSH0 DUP1 REVERT JUMPDEST PUSH0 DUP2 SWAP1 POP SWAP2 SWAP1 POP JUMP JUMPDEST PUSH2 0x391 DUP2 PUSH2 0x37F JUMP JUMPDEST DUP2 EQ PUSH2 0x39B JUMPI PUSH0 DUP1 REVERT JUMPDEST POP JUMP JUMPDEST PUSH0 DUP2 CALLDATALOAD SWAP1 POP PUSH2 0x3AC DUP2 PUSH2 0x388 JUMP JUMPDEST SWAP3 SWAP2 POP POP JUMP JUMPDEST PUSH0 PUSH1 0x20 DUP3 DUP5 SUB SLT ISZERO PUSH2 0x3C7 JUMPI PUSH2 0x3C6 PUSH2 0x37B JUMP JUMPDEST JUMPDEST PUSH0 PUSH2 0x3D4 DUP5 DUP3 DUP6 ADD PUSH2 0x39E JUMP JUMPDEST SWAP2 POP POP SWAP3 SWAP2 POP POP JUMP JUMPDEST PUSH2 0x3E6 DUP2 PUSH2 0x37F JUMP JUMPDEST DUP3 MSTORE POP POP JUMP JUMPDEST PUSH0 PUSH1 0x40 DUP3 ADD SWAP1 POP PUSH2 0x3FF PUSH0 DUP4 ADD DUP6 PUSH2 0x3DD JUMP JUMPDEST PUSH2 0x40C PUSH1 0x20 DUP4 ADD DUP5 PUSH2 0x3DD JUMP JUMPDEST SWAP4 SWAP3 POP POP POP JUMP JUMPDEST PUSH0 PUSH1 0x20 DUP3 ADD SWAP1 POP PUSH2 0x426 PUSH0 DUP4 ADD DUP5 PUSH2 0x3DD JUMP JUMPDEST SWAP3 SWAP2 POP POP JUMP JUMPDEST PUSH0 DUP3 DUP3 MSTORE PUSH1 0x20 DUP3 ADD SWAP1 POP SWAP3 SWAP2 POP POP JUMP JUMPDEST PUSH32 0x4F6E6C79206F776E65722063616E20646F20746869732E000000000000000000 PUSH0 DUP3 ADD MSTORE POP JUMP JUMPDEST PUSH0 PUSH2 0x470 PUSH1 0x17 DUP4 PUSH2 0x42C JUMP JUMPDEST SWAP2 POP PUSH2 0x47B DUP3 PUSH2 0x43C JUMP JUMPDEST PUSH1 0x20 DUP3 ADD SWAP1 POP SWAP2 SWAP1 POP JUMP JUMPDEST PUSH0 PUSH1 0x20 DUP3 ADD SWAP1 POP DUP2 DUP2 SUB PUSH0 DUP4 ADD MSTORE PUSH2 0x49D DUP2 PUSH2 0x464 JUMP JUMPDEST SWAP1 POP SWAP2 SWAP1 POP JUMP JUMPDEST PUSH32 0x496E73756666696369656E74204554482E000000000000000000000000000000 PUSH0 DUP3 ADD MSTORE POP JUMP JUMPDEST PUSH0 PUSH2 0x4D8 PUSH1 0x11 DUP4 PUSH2 0x42C JUMP JUMPDEST SWAP2 POP PUSH2 0x4E3 DUP3 PUSH2 0x4A4 JUMP JUMPDEST PUSH1 0x20 DUP3 ADD SWAP1 POP SWAP2 SWAP1 POP JUMP JUMPDEST PUSH0 PUSH1 0x20 DUP3 ADD SWAP1 POP DUP2 DUP2 SUB PUSH0 DUP4 ADD MSTORE PUSH2 0x505 DUP2 PUSH2 0x4CC JUMP JUMPDEST SWAP1 POP SWAP2 SWAP1 POP JUMP JUMPDEST PUSH32 0x4E487B7100000000000000000000000000000000000000000000000000000000 PUSH0 MSTORE PUSH1 0x11 PUSH1 0x4 MSTORE PUSH1 0x24 PUSH0 REVERT JUMPDEST PUSH0 PUSH2 0x543 DUP3 PUSH2 0x37F JUMP JUMPDEST SWAP2 POP PUSH2 0x54E DUP4 PUSH2 0x37F JUMP JUMPDEST SWAP3 POP DUP3 DUP3 MUL PUSH2 0x55C DUP2 PUSH2 0x37F JUMP JUMPDEST SWAP2 POP DUP3 DUP3 DIV DUP5 EQ DUP4 ISZERO OR PUSH2 0x573 JUMPI PUSH2 0x572 PUSH2 0x50C JUMP JUMPDEST JUMPDEST POP SWAP3 SWAP2 POP POP JUMP JUMPDEST PUSH32 0x5265656E7472616E637947756172643A207265656E7472616E742063616C6C00 PUSH0 DUP3 ADD MSTORE POP JUMP JUMPDEST PUSH0 PUSH2 0x5AE PUSH1 0x1F DUP4 PUSH2 0x42C JUMP JUMPDEST SWAP2 POP PUSH2 0x5B9 DUP3 PUSH2 0x57A JUMP JUMPDEST PUSH1 0x20 DUP3 ADD SWAP1 POP SWAP2 SWAP1 POP JUMP JUMPDEST PUSH0 PUSH1 0x20 DUP3 ADD SWAP1 POP DUP2 DUP2 SUB PUSH0 DUP4 ADD MSTORE PUSH2 0x5DB DUP2 PUSH2 0x5A2 JUMP JUMPDEST SWAP1 POP SWAP2 SWAP1 POP JUMP INVALID LOG2 PUSH5 0x6970667358 0x22 SLT KECCAK256 0xC 0xB6 SWAP7 0x1F ADDMOD 0xA5 EXP 0x21 0xDD REVERT STOP 0xE DUP3 DUP4 0xBE 0xEA 0xCE 0xC0 PC 0xEC 0xC PUSH2 0x8ECD DUP15 MSIZE INVALID 0xBD PUSH14 0x596DE264736F6C634300081A0033 "
		},
		"gasEstimates": {
			"creation": {
				"codeDepositCost": "312000",
				"executionCost": "infinite",
				"totalCost": "infinite"
			},
			"external": {
				"UNISWAP_POOLMANAGER_SEPOLIA()": "373",
				"USDC_ADDRESS()": "2596",
				"USDC_ADDRESS_SEPOLIA()": "351",
				"executeSwap(uint256)": "infinite",
				"getUserBalance()": "3003",
				"owner()": "2530"
			}
		},
		"methodIdentifiers": {
			"UNISWAP_POOLMANAGER_SEPOLIA()": "74667906",
			"USDC_ADDRESS()": "bb09d9b7",
			"USDC_ADDRESS_SEPOLIA()": "4bf2e99b",
			"executeSwap(uint256)": "a9ab232b",
			"getUserBalance()": "b7013dc1",
			"owner()": "8da5cb5b"
		}
	},
	"abi": [
		{
			"inputs": [],
			"stateMutability": "nonpayable",
			"type": "constructor"
		},
		{
			"anonymous": false,
			"inputs": [
				{
					"indexed": false,
					"internalType": "address",
					"name": "owner",
					"type": "address"
				},
				{
					"indexed": false,
					"internalType": "address",
					"name": "USDC_ADDRESS",
					"type": "address"
				}
			],
			"name": "ContractDeployed",
			"type": "event"
		},
		{
			"anonymous": false,
			"inputs": [
				{
					"indexed": false,
					"internalType": "string",
					"name": "log",
					"type": "string"
				}
			],
			"name": "log",
			"type": "event"
		},
		{
			"inputs": [],
			"name": "UNISWAP_POOLMANAGER_SEPOLIA",
			"outputs": [
				{
					"internalType": "address",
					"name": "",
					"type": "address"
				}
			],
			"stateMutability": "view",
			"type": "function"
		},
		{
			"inputs": [],
			"name": "USDC_ADDRESS",
			"outputs": [
				{
					"internalType": "address",
					"name": "",
					"type": "address"
				}
			],
			"stateMutability": "view",
			"type": "function"
		},
		{
			"inputs": [],
			"name": "USDC_ADDRESS_SEPOLIA",
			"outputs": [
				{
					"internalType": "address",
					"name": "",
					"type": "address"
				}
			],
			"stateMutability": "view",
			"type": "function"
		},
		{
			"inputs": [
				{
					"internalType": "uint256",
					"name": "balanceOfETH",
					"type": "uint256"
				}
			],
			"name": "executeSwap",
			"outputs": [
				{
					"internalType": "uint256",
					"name": "userETH",
					"type": "uint256"
				},
				{
					"internalType": "uint256",
					"name": "gainOfUSDC",
					"type": "uint256"
				}
			],
			"stateMutability": "nonpayable",
			"type": "function"
		},
		{
			"inputs": [],
			"name": "getUserBalance",
			"outputs": [
				{
					"internalType": "uint256",
					"name": "",
					"type": "uint256"
				}
			],
			"stateMutability": "view",
			"type": "function"
		},
		{
			"inputs": [],
			"name": "owner",
			"outputs": [
				{
					"internalType": "address",
					"name": "",
					"type": "address"
				}
			],
			"stateMutability": "view",
			"type": "function"
		}
	]
}